:020000040800F2
:10000000C8070020D5000008D5470008C73A0008F7
:1000100000000000000000000000000000000000E0
:10002000000000000000000000000000494C000833
:10003000000000000000000029480008E50000085A
:10004000E700000800000000E7000008E7000008E3
:10005000E7000008E7000008E7000008E7000008E4
:1000600000000000C1120008E7000008E7000008D7
:10007000E7000008E7000008E700000800000000B3
:100080008D4D00080000000000000000E70000089F
:1000900000000000E7000008E7000008E700000893
:1000A000E7000008E7000008E7000008E700000894
:1000B00001570008000000000000000000000000E0
:1000C0000348854600F0E8FB00480047456000080B
:1000D000C80700200448804704480047FEE7FEE7C1
:1000E000FEE7FEE7FEE7FEE77D4D0008C1000008E1
:1000F00030B50B46014600202022012409E00D46C0
:10010000D5409D4205D31D469540491B2546954047
:1001100040191546521E002DF1DC30BD70B500248B
:100120002546002801DA01244042002901DA012590
:100130004942FFF7DDFFAC4200D04042002C00D026
:10014000494270BDD2B201E00270401C491EFBD290
:1001500070470022F6E710B513460A4604461946D2
:10016000FFF7F0FF204610BDF8B502464A40D40F15
:1001700042004B0052085B089A4202D202460846EF
:1001800011464A0023D0C30D4A00DDB2120EAD1A4B
:10019000202D35DA49020126490AF6058A19002C74
:1001A00000D0524220214F1B1146B9402A4110185D
:1001B000C20D9A4221D0002C17D0012D08DCDA059F
:1001C000801AD20F8019D207DBB200F08CF9F8BD8B
:1001D000DA05801A012340001B06C01880185A4215
:1001E0008018CA0F1043490007E04908C2071143AD
:1001F000DA05801A80194008801800F06CF9F8BD03
:1002000061000122511A001BF7E70122D207514079
:10021000AAE70122D2075040A6E7024670B54A403D
:10022000D30FDB0740002DD04A002AD0010E140E58
:10023000000212020919400A520A8418E501044614
:100240005443000A120A2E045043A4194219200CE8
:10025000C543AA18120C0125AD03521C52191204F1
:100260007F39240400D0521C104301D44000491EA1
:10027000C2B20C06C0092018401C4008802A02D0D7
:1002800003E0002070BD40084000002900DA002093
:10029000184370BD70B502464A40D50F40004A0071
:1002A000ED0740085208002814D0002A12D0C40DCF
:1002B000D30D41020120C0055202490A520AE41A34
:1002C000091812187D34914201D3641C00E04900E2
:1002D000002C01DA002070BD0023914201D3891A5D
:1002E0000343400849000028F7D100290AD0914271
:1002F00002D10121C90705E0914201D2012101E0AB
:100300000121C943E005C018401900F0E4F870BDB0
:10031000420005D04200120E52428A4201DB002008
:100320007047C90508187047F0B51FB488B00B991D
:100330000998002448400999C00F490049080991CB
:10034000C0070B990090490049080B91099908983A
:10035000A64608431CD00B990A98084318D0099860
:1003600001244000420D4800410D09982405000376
:10037000000B204309900B980003000B20430B90C7
:1003800050181C494018002201901446104605E000
:10039000002001460DB0F0BD032801DA034600E05D
:1003A00003239C46C11A0AAE0AE05F0008ADED5B6C
:1003B0004F00F75B7D430027AA187C41491C5B1E58
:1003C0006145F2DD410004AB5A522104120C0A438C
:1003D000240C401C0828DFDB01980290009970462D
:1003E00001910090059B049A0799069800F0C1F8C6
:1003F000D0E700000DFCFFFFC217C10F504010B541
:100400004018CA079623002100F06DF810BD10B502
:1004100000229623114600F066F810BDC20F41007D
:1004200040020123400ADB05D207090EC0187F29CC
:1004300001DA00207047962903DC9623591AC84038
:1004400001E096398840002AF4D0404270474100CC
:1004500040020122400AD205090E80187F2901DAE4
:1004600000207047962903DC9622511AC840704735
:10047000963988407047C20FD207400040080BD021
:10048000C10D0723DB01C91840020905400A1143C9
:10049000C208400711437047002001467047CB0F48
:1004A000DB07490010B5490802460A4307D00A0D88
:1004B00007240903E401090B121B002A01DC0020B8
:1004C00010BDC900440F0C43C100E018D2058018CC
:1004D00000F001F810BD002904DA401C490001D1E8
:1004E00040084000704770B40024050C05D110246A
:1004F000000402D1002921D01124050E01D10002EF
:100500000834050F01D10001241D850F01D18000A1
:10051000A41C002801DB4000641C002908D0202511
:100520002E1B0D46F540A14000D001212943084370
:1005300001061B1B000ADB1D02D5002070BC7047A2
:10054000DB05181880180029F8DA401C4900F5D19D
:1005500070BC40084000704710B5002B08DA00243A
:10056000401C614192185B411A4301D14008400090
:1005700010BDF0B51FB482B005460C0003D008468C
:1005800005F0C6F802E005F0C3F8203002460090FE
:100590002146284600F092F9049B059A04460F462E
:1005A00018431143084314D0184610431BD0009839
:1005B00040210A1A1846059900F090F905460E46A2
:1005C000009A0599049800F079F9084305D00120B4
:1005D00004E02046394607B0F0BD0020C1170543AE
:1005E0000E432C43374300990E986305401A790552
:1005F000E40A00220C43FD0A0A3002D5002001461D
:10060000E9E70105101969410C9C0D9D001969412C
:10061000FFF7A2FFDFE70000F0B5074608465840A5
:1006200087B0C00F049048000E46590040084908A2
:10063000BC1A884105D2384631461E4617460B463D
:1006400002465800400810434CD0300D039040053E
:100650005900400D490D0590401A0290402872DA69
:1006600018030121000B090508430190049800922A
:10067000002805D001995242002088410092019043
:10068000029840210A1A0199009800F017F90546CE
:100690000C466B4607CB00F032F9C0197141039A42
:1006A0000E0D0023D71756401A467A40164344D001
:1006B000049A002A2DD0029A012A039A15DC120509
:1006C000C01A914101263605001C7141D20F059ECA
:1006D000D2070093019202962A462346FFF749FF6C
:1006E00007B0F0BD38463146FAE71605224A0F46F4
:1006F000B218C01AB74101210905001C4F4100186A
:100700007F41114618187941E20F10436D19644179
:1007100013E0E2076D0815436408C2071443039A07
:1007200001261205C01A91413605001C7141CE0701
:10073000400830434908C01851412A462346FFF774
:100740000BFFCDE7FFE7049801224000C117121A02
:1007500000238B4104983146C417381AA141EEE7B3
:1007600030B40124E407634030BC55E730B40124C1
:10077000E407614030BC4FE70000E0FFF0B50C46F5
:100780005C4085B0E40FE40703944C000026640845
:1007900059009446490802460296224321D06246F7
:1007A0000A431ED06200570D4A000E032303550D65
:1007B000012402462C492405781B1B0B360B4018DC
:1007C00023432643614600901C46501AB44103D38C
:1007D0000098401C009002E0921800985B410028AD
:1007E00003DA0020014605B0F0BD00200121090513
:1007F0000746864611E064461D46141BB54106D3E4
:100800006546521BB341744607430C43A646CD07C9
:1008100040084908284392185B4105460D43EAD138
:100820001046184313D060461946504071400843A3
:1008300006D06046101AB34106D20122002306E01A
:1008400000220123DB0702E00122D243531000986B
:1008500074460105381C6141029C039D00196941E1
:10086000FFF77AFEBFE70000FD03000070B54B0004
:100870005B0803430BD04B005C0D002633466542FA
:10088000B341D417AD1AA34102DB0020014670BD6D
:1008900012053018514170BD064C0125064E05E089
:1008A000E36807CC2B430C3C98471034B442F7D391
:1008B000FFF70AFC506200087062000810B5202A99
:1008C00004DB0146203A9140002010BD91402023D6
:1008D0009C1A0346E3401943904010BD10B5202AEE
:1008E00004DB0846203AD040002110BD0B46D3401F
:1008F000D0402024A21A91400843194610BD10B5DB
:10090000202A06DBCB170846203A1041C1170B43BB
:1009100006E00B461341D0402024A21A9140084320
:10092000194610BDFEB500231A461B1A8A4103DB87
:100930000020014603B0F0BD4A000D0301212D0B3C
:100940000905520D0D43D10702D100186D41521E09
:100950005110FF31FF310131002704463E46384631
:10096000009701910246012100200905FFF7B6FF1B
:10097000C3197141F818324684468E464A41614691
:100980002846611A904104D36046241A9541764660
:100990001F46241900986D41401C00903428E1DD69
:1009A000F91930467041091BA84103D20022D243F5
:1009B000134601E00022134601980105381C7141DD
:1009C000FFF7CAFDB6E70000F8B50546002000278E
:1009D000285ECF5F0C46C01BFFF70EFD1B4909695F
:1009E0000091FFF71AFC06463846FFF705FD314631
:1009F000FFF7BAFBFFF712FD208002200227285ED6
:100A0000E75FC01BFFF7F8FC0099FFF706FC0646FE
:100A10003846FFF7F1FC3146FFF7A6FBFFF7FEFC77
:100A2000608004200426285EA65F801BFFF7E4FC9C
:100A30000099FFF7F2FB05463046FFF7DDFC29463B
:100A4000FFF792FBFFF7EAFCA080F8BD94000020BE
:100A500010B502220249034801F05CFC10BD000001
:100A6000CC000020E001002010B5846AA16D502266
:100A700011420DD1A06D012149020843A0652068F3
:100A800003F051FB00281BD0A07E002807D017E000
:100A9000A16DC90624D5204601F0C8FA10BD206812
:100AA000016809070CD503F03AFB01460120002933
:100AB0000AD0A16D20221143A165E16D0143E165DA
:100AC000204601F0B1FA10BD21684A680C239A4310
:100AD0004A60A16DFF22013291430143A165EFE716
:100AE000216D496B884710BD10B5806A816D402229
:100AF00011438165C16D04221143C16501F096FA6D
:100B000010BD10B5806A01F090FA10BDF8B504462A
:100B1000006803F000FB00282ED120688168174A86
:100B200010261140002919D18168D5432940491C5C
:100B30008160607E01281FD001F09EFE074616E00E
:100B400003F0E9FA002804D1206881682940491C93
:100B5000816001F091FEC01B022808D9A06D3043CE
:100B6000A065E06D01210843E0650846F8BD2068F6
:100B70000168C943C907E3D10020F8BD1700008010
:100B800010B503F0A5FA04F067F9FFF761FF03F071
:100B90000DFA0128FBD10649064800F021F901F0C1
:100BA000B7FD00F0FFFB04490120087010BD0000F4
:100BB000000020416F12833AC4000020F8B5524C67
:100BC0000021E078401DC2B2032003E0235C5940BD
:100BD000401CC0B29042F9D3A05C88427ED12078FC
:100BE00024287BD160784D2878D1A0783C2875D115
:100BF000207969282ED1444A9079537901024348DB
:100C00001943C18011460B7ACD791B022B43838097
:100C1000937A557A1B022B4343800B7BCD7A1B02C0
:100C20002B430380937B557B1B022B4303810B7C5F
:100C3000CD7B1B022B434381937C557C1A022A43B4
:100C400082810A7DCB7C11021943C18103F0B8FF78
:100C500003F03EFF2079CA2846D16079FFF7D7FB21
:100C60002B49FFF717FB2B4D06462860A079FFF7AD
:100C7000CEFB2949FFF70EFB07466860E079FFF7D6
:100C8000C6FB2649A8608860C0C1207AFFF7BFFB79
:100C90001F49FFF7FFFA224D06462860607AFFF7EA
:100CA000B6FB1D49FFF7F6FA07466860A07AFFF722
:100CB000AEFB1C49A8608860C0C1E07AFFF7A7FBC3
:100CC0001349FFF7E7FA184D2860207BFFF79FFBD9
:100CD0001149FFF7DFFA6860607B00E013E0FFF77F
:100CE00096FBA86000F06CFC2079CD2801D100F0C3
:100CF0004DFB2079CE2801D100F04EFB2079D02881
:100D000001D103F069FDF8BDC001002010010020F1
:100D1000000020414001002000007A442C01002006
:100D200068010020540100207C01002070B51F4C98
:100D30006088401C80B26080012803D1FFF73EFF2D
:100D400003F084FF60887D21C900884203D301201D
:100D5000174960800870174D6888FFF758FB0446F4
:100D60002888FFF754FB0121FFF7D2FA2146FFF74D
:100D700091FA1149FFF751FA1049FFF74EFAFFF7C0
:100D80004DFB0F4900B20880FF214B31884209DD3D
:100D90000C48807B800702D503F056F970BD03F044
:100DA00035F970BD022003F06BF970BDC60000205C
:100DB0008E000020CC0000209A99993F0000C84284
:100DC000D00000201001002010B50146024B042283
:100DD000024802F007FE10BDFFFF000020030020C4
:100DE00010B50A46044609491046FFF716FA0146AF
:100DF0007F20C005FFF74EFA2146FFF7B5F90146FF
:100E00002046FFF747FA0249086110BDDB0FC940D1
:100E100094000020F3B50C46C888614983B042189D
:100E20006048132A00D2E080A2885118132900D20A
:100E3000A0802289BB21C900521A092A00D2208130
:100E40006289511A092900D26081554E6089093E94
:100E50008019FFF7D1FA544F3946FFF71BFA0546C0
:100E6000E0888019FFF7C8FA5049FFF713FA039991
:100E70004968FFF7CEF92946FFF776F94C49054650
:100E80004860009020898019FFF7B6FA3946FFF7CD
:100E900001FA0746A0888019FFF7AEFA4349FFF729
:100EA000F9F903998968FFF7B4F93946FFF7ADF905
:100EB0003F490746886028463E4E3F4DB04204DD1C
:100EC0003146E868FFF750F9E8603C4900988842ED
:100ED000E86800D900E00099FFF746F90146E860AC
:100EE0003748814200DD02E03648814200D9E8609F
:100EF0003146354E8F4203DDF068FFF735F9F0607B
:100F00002E49F0688F4200D83946FFF72DF9014687
:100F1000F0602B48814202DC2A48814200D9F0600F
:100F200020884B210901884202D20020E860F0604D
:100F30001F4C00980C346168FFF767F9A968FFF748
:100F40006CF90290E9686868FFF767F90190286812
:100F50000099FFF762F90199FFF706F90299FFF787
:100F600003F928613846A168FFF74FF9B168FFF728
:100F700054F90546F1687068FFF74FF9019039465A
:100F80003068FFF74AF90199FFF7EEF82946FFF7B5
:100F9000EBF830610098A760606005B0F0BD00001C
:100FA0002DFAFFFFDC0500000000C84200005041A0
:100FB000900100200000204140010020000020C1DD
:100FC00000007A4400007AC42C010020F7B50746DF
:100FD0000C464888A94988B04018C72801D2A848BB
:100FE0006080A089BB21C900401A092801D2081DD0
:100FF000A081A4497868FFF710F90146A2480122B0
:101000000069D2075040FFF700F9A04D064668601E
:101010009C493868FFF701F99D490969FFF7F9F81C
:10102000A8600546A07BC1079A48A1890ED0081880
:10103000FFF7E2F99849FFF72DF900909749B86852
:10104000FFF7EBF80099FFF7E0F81AE00818FFF750
:10105000D3F99349FFF71EF900908A49B868FFF762
:10106000DCF8074661888648401AFFF7C5F9002179
:10107000C943FFF74DF93946FFF7C7F80099FFF765
:1010800073F88249874F08608548864204DD8449A9
:10109000F868FFF769F8F86083488642F86801D974
:1010A000814900E03146FFF75FF8F8607D48C2688B
:1010B0007E48824201DD7B4903E07D4879498242D6
:1010C00000D9C86076497B4F8D4203DDF868FFF791
:1010D0004BF8F8607449F8688D4200D82946FFF74C
:1010E00043F8F8607348C2687048824201DD714974
:1010F00003E06F486F49824200D9C86063486E4F71
:1011000001680491F868FFF72FF86849F860884291
:1011100002DD3846C16004E06549674A884200D96B
:10112000D16021884B200001814202D26248002117
:10113000C160564F30460C377968FFF766F8594959
:101140008968FFF76AF800905648C1684068FFF761
:1011500064F80590534831460068FFF75EF805993A
:10116000FFF702F80099FEF7FFFF4E490861019072
:101170002846B968FFF749F84E498968FFF74DF8E6
:1011800006904C48C1684068FFF747F80790494807
:1011900029460068FFF741F80799FEF7E5FF069931
:1011A000FEF7E2FF43490861059039680498FFF7AC
:1011B0002CF841498968FFF730F806903E48C1682D
:1011C0004068FFF72AF800903B4804990068FFF751
:1011D00024F80099FEF7C8FF0699FEF7C5FF3649C7
:1011E000086100907E60BD600498386020884B21C3
:1011F0000901884202D90A9900290AD000263546F9
:101200003446334622462946304603F0B9FA0BB03D
:10121000F0BD2A494018FFF7EFF804460599FEF79C
:10122000A3FF05460199FEF79FFF0099FEF7EDFF2A
:10123000FFF7F4F806B228460199FEF7E6FF009999
:10124000FEF792FFFFF7EAF805B220460599FEF790
:10125000DCFF07460199FEF787FF0099FEF784FF40
:10126000FFF7DCF804B238460199FEF7CEFF00998B
:10127000FEF7CBFFFFF7D2F803B2C3E787FAFFFF11
:10128000DC050000E12E654240010020A80100209D
:101290002C01002024FAFFFF0000C842E12E65C2A5
:1012A0000000484268010020000048C200409C4500
:1012B00000409CC5540100207C010020E6FBFFFF9C
:1012C00010B5024801F0C0F810BD00004402002033
:1012D00010B50446007814210838FEF709FF216C88
:1012E000064A890889008918616404498031A1642B
:1012F0001C21084001218140E16410BD000802402A
:101300000179074B8A00D2180265054A4432491E0A
:1013100042658A07920F0121914081657047000064
:10132000FC080240F0B5846CC56C6560046D002C4F
:1013300002D0446D856D65600B4C6568066C1C279A
:101340003E400127B7403D436560046863608368A1
:10135000102B036803D099600068C260F0BD9A60EA
:101360000068C160F0BD0000000002400022064B92
:1013700006E00021491C89B29942FBD3521C92B26B
:101380008242F6D370470000342100000149012059
:10139000487070471800002001490120087070470C
:1013A0001800002010B500F0C5F900F01FF800F09B
:1013B0003BF800F057F80C4C2146E08B123900F056
:1013C00015FA2046123800880F280BD0012080F330
:1013D0001088E08B0F2100F059FA002080F310886C
:1013E00003F0FAF910BD00005600002010B50D4CB6
:1013F00021462088123900F0F9F921466088103919
:1014000000F0F4F92146A0880E3900F0EFF92046EB
:1014100012380288811D0A8042884A80808888802C
:1014200010BD00005600002010B50D4C2146E0888C
:10143000123900F0DBF921462089103900F0D6F985
:10144000214660890E3900F0D1F920461238028811
:10145000A11F0A8042884A808088888010BD0000D1
:1014600056000020F8B5394C2146A089123900F009
:10147000BDF92146E089103900F0B8F92146208AEB
:101480000E3900F0B3F92546123D2888FEF7BFFF5C
:101490002F49FEF7FFFE2F4E306000906888FEF760
:1014A000B6FF2D49FEF7F6FE07467060A888FEF7E6
:1014B000AEFFB0603246143A0099906082C2608AF2
:1014C000294600F093F9A08AA91C00F08FF9E08A60
:1014D000291D00F08BF92888FEF799FF1C49FEF7BB
:1014E000D9FE2836306000906888FEF790FF1A49D0
:1014F000FEF7D0FE07467060A888FEF788FFB06050
:101500003246143A0099906082C2208B294600F03E
:101510006DF9608BA91C00F069F9A08B291D00F002
:1015200065F92888FEF773FF0949FEF7B3FE3446D4
:10153000143420606888FEF76AFF0749FEF7AAFEA8
:101540006060A888FEF763FFA060F8BD5600002029
:10155000000020414001002000007A4470B50120C5
:1015600080F31088094C25460C352188288800F026
:101570008DF96188688800F089F9A188A88800F051
:1015800085F9002080F3108870BD00004A0000201B
:1015900070B5012080F31088084CA51D2188E888CB
:1015A00000F074F96188288900F070F9A1886889D1
:1015B00000F06CF9002080F3108870BD500000200E
:1015C000F8B5012080F31088334D34492868FEF7C0
:1015D00024FEFEF723FF324C86B22680314968682C
:1015E000FEF71BFEFEF71AFF6080A868FEF716FFE5
:1015F0002546A0801235A889314600F047F9E889D0
:10160000618800F043F9288AA18800F03FF9224E52
:10161000224928363068FEF700FEFEF7FFFE87B24B
:10162000278020497068FEF7F8FDFEF7F7FE60801E
:10163000B068FEF7F3FEA080688A394600F026F90C
:10164000A88A618800F022F9E88AA18800F01EF9D2
:10165000143612493068FEF7E0FDFEF7DFFE87B270
:10166000278010497068FEF7D8FDFEF7D7FE60802E
:10167000B068FEF7D3FEA080288B394600F006F94B
:10168000688B618800F002F9A88BA18800F0FEF851
:10169000002080F31088F8BD4001002000002041A8
:1016A0004400002000007A440E490A880E49098847
:1016B00000280DD0012813D10C48002902D0002A9F
:1016C00003D009E082420BD008E0814206D007E057
:1016D000002A05D0002901D0AB20704701207047B7
:1016E000002070470000010800080108EEEE00002D
:1016F00070B50E4C0C4D214608392046656000F04F
:1017000097FF00280ED1002213462946012000F041
:10171000CFFF002806D106482146606008392046E0
:1017200000F086FF70BD0000000001080C000020E2
:101730000008010810B504F019F8044602F010FC86
:10174000204610BDF3B5002681B00F46224C30462E
:10175000FFF7AAFF2149012803D0002804D0AB20BD
:10176000FEBD25460C4600E00D461D4A00232946D5
:10177000012000F09DFF0028F2D102F0F1FB394674
:10178000019800F055F80028EAD116497700C85BA7
:10179000019A90420CD0144900F028F8012807D093
:1017A00010481149C05B098800F042F80028D7D1E1
:1017B000761CB6B2102EE8D30B480C30014608391F
:1017C000446000F035FF0028CAD1002213462946A4
:1017D000012000F06DFFFEBD0000010800080108B7
:1017E000EEEE00005600002000000020F8B506468E
:1017F0000D4601240C4F0020FFF756FFAB2812D0F6
:101800000A49C002C0198A68801C921E08E011882B
:10181000B14204D1403AD08F2880002402E0121F48
:101820008242F4D82046F8BD0000010800000020E4
:1018300070B506460D460120FFF736FFAB280DD0E8
:101840001049C002104C4118A06804E00268521C04
:1018500005D0001DA0608842F8D3802070BD0146ED
:101860002A460023012000F023FF0028F6D1A168BA
:10187000324600230120891C00F01AFFA168091DCF
:10188000A16070BDFE0701080000002070B50C4685
:101890000546FFF7CDFF802803D121462846FFF7F4
:1018A00051FF70BD7047000002484169024A114370
:1018B000416170470020024004000100054A51695F
:1018C000FF23F9339943C00008430349084350619B
:1018D00070470000002002400200010030B50549B9
:1018E0004C6901252C434C610260BFF36F8F43604C
:1018F00030BD00000020024030B50B4C002362696F
:101900000125AD042A436261EFF3108272B620C94B
:101910005B1C20C0DBB2402BF9D32069C003FCD490
:1019200082F3108830BD00000020024070B50546EB
:1019300000F0A2FF4619174C03E000F09DFFB042F3
:101940001FD22069C043C003F7D521691248014066
:10195000401C2061A26901208007024003D0A069D9
:101960001043A0611143002903D00C4841600120BD
:1019700070BD00F081FF451905E000F07DFFA84231
:1019800001D3032070BD2069C0434003F5D500207A
:1019900070BD000000200240FA830000AC0300206C
:1019A00010B50B4881684A000A4952088A4204DC93
:1019B000406840004008884208DD00231A46194666
:1019C000184602F0DDFE04490120087010BD000039
:1019D000200100200000A0428E00002010B5024629
:1019E0000020D37801469B1C04E05418E478604042
:1019F000491CC9B29942F8D310BD0000F0B5304C73
:101A000085B0E168074608460391FEF706FC04909E
:101A1000A16802910846FEF700FC61680646084688
:101A20000191FEF7FAFB2168054608460091FEF792
:101A3000F4FB2946FEF7E9FB3146FEF7E6FB049985
:101A4000FEF792FBFEF717FD05460E460399029836
:101A5000FEF7E3FB029001990098FEF7DEFB029986
:101A6000FEF782FB0121FEF753FCFEF704FD2A4638
:101A7000334604F011FA012676073246114BFEF781
:101A800053FCFEF70CFDB860E1686068FEF7C5FB2B
:101A90000546A1682068FEF7C0FB2946FEF7B5FBA6
:101AA0000121FEF735FCFEF7E6FC03F0ADFF324600
:101AB000054BFEF739FCFEF7F2FC786005B0F0BD8F
:101AC000A8000020DCA54CC0DCA54C4070B5054644
:101AD00000200C46285EFEF78FFC0B4E3146FEF7C9
:101AE0009CFB20600220285EFEF786FC3146FEF754
:101AF00094FB60600420285EFEF77EFC3146FEF712
:101B00008CFBA06070BD000089A18B3AF0B51C4E23
:101B10001B4F36788C46B64601887600BF1CB953F9
:101B200041883F1D0024B9538088391D88532346BE
:101B3000224625463E1F6800315E6D1C0C19395E39
:101B4000EDB2CB180E490A31085E8218022DF2D38D
:101B5000E00F0019401061460880D80FC0184010EF
:101B60004880D00F8018401088807146491C044876
:101B7000C9B20170022901D100210170F0BD00003D
:101B800094000020F8B5064604464036307D0D46E8
:101B9000012807D001273775206802F0C0FA002815
:101BA00002D029E00220F8BD01229449D20528681C
:101BB0005310884232D16868801A0DD0984208D1FB
:101BC0007F22A868D20490430322920582182068DD
:101BD00004E00022206801E0894A206802F0ACFAA3
:101BE000A06D012109048843A06580212068EBE0F5
:101BF0000A4300E08A43426080482A68824228699A
:101C000070D12368D968DB68C906890F490088400C
:101C10006969DB069B0F5B009940DEE06968891A01
:101C200070D099420BD17749884221685BD18031CD
:101C30000A6AA868430305D0C3074ED105E0002215
:101C40002368ABE04000C00E48E0830701D50120C7
:101C500044E0430701D5022040E0030701D50320FB
:101C60003CE0C30601D5042038E0830601D50520F9
:101C700034E0430601D5062030E0030601D50720F5
:101C80002CE0C30501D5082028E0830501D50920F3
:101C900024E0430501D50A2020E0030501D50B20EF
:101CA0001CE0C30401D50C2018E0830401D50D20ED
:101CB00014E0430401D50E2010E0030401D50F20E9
:101CC0000CE0C30301D5102008E0830301D51120E7
:101CD00004E0400301D5122000E0002087403A4391
:101CE0000A625FE078E080314A6AA868430302D064
:101CF000C3074CD102E04000C00E49E0830702D583
:101D0000012045E048E0430701D5022040E00307F9
:101D100001D503203CE0C30601D5042038E083064A
:101D200001D5052034E0430601D5062030E0030646
:101D300001D507202CE0C30501D5082028E0830544
:101D400001D5092024E0430501D50A2020E0030540
:101D500001D50B201CE0C30401D50C2018E083043E
:101D600001D50D2014E0430401D50E2010E003043A
:101D700001D50F200CE0C30301D5102008E0830338
:101D800001D5112004E0400301D5122000E000201D
:101D900087403A434A6205E0194A236801461846DB
:101DA00002F0CAF9174829688142A06D06D10121C5
:101DB00049048843A0654912206805E0012189048F
:101DC0008843A065206849120160287B01282068AB
:101DD000426800D00EE70BE7696992022368940F0E
:101DE000D20FA2189200D218136A074C00042340A5
:101DF00008430343136200203075F8BD0000C07C27
:101E0000FFFF8700FFFF170000F000F0F8B5002784
:101E10000646044640360097307D0D4601280FD017
:101E200001203075206802F07AF900280AD0A06DF0
:101E300020210843A0650127002030753846F8BDF1
:101E40000220F8BD686802287ED001222169D207ED
:101E5000914202D0121D914206D120682968826AFF
:101E60004903490B0A436EE0C206D20E0F20216ED1
:101E7000904081432868430302D0C3074BD102E05E
:101E80004000C00E48E0830701D5012044E043072D
:101E900001D5022040E0030701D503203CE0C30642
:101EA00001D5042038E0830601D5052034E043063F
:101EB00001D5062030E0030601D507202CE0C3053C
:101EC00001D5082028E0830501D5092024E0430539
:101ED00001D50A2020E0030501D50B201CE0C30436
:101EE00001D50C2018E0830401D50D2014E0430433
:101EF00001D50E2010E0030401D50F200CE0C30330
:101F000001D5102008E0830301D5112004E040032F
:101F100001D5122000E0002090400143216669684D
:101F2000E2698808401C904210D820682B68826AB9
:101F30009C46C906C90E0F238B409A4363469B00FB
:101F40001B0F8B401A4300E038E082622168AB68C7
:101F500028684A6900028243184040014009024350
:101F60004A612868002800DB66E7294A11680723D0
:101F70009B051940274B984211D10B020FD4C00288
:101F80000143104602F0F0F8244823490068FEF7A8
:101F9000AFF800E0401E00900028FBD14CE7204B3A
:101FA000984203D1CB0101D4800205E01D4B984239
:101FB000DAD14802D8D45802014325E00121206932
:101FC000C907884202D0091D884206D120682968C5
:101FD000826A4903490B8A43826228680028C3DA6F
:101FE0000B4A116807239B0519400A4B984201D1FF
:101FF000C00208E00A4B984201D1800203E0094B7D
:102000009842B1D140028143104602F0ADF813E787
:1020100008270140001000B0400D0300E000002040
:10202000004000B8002000B47047704770470000BF
:10203000F0B5002685B00446029601960096002869
:1020400003D0A06D002803D009E0012005B0F0BD49
:10205000204600F015F90020E0655421085520685D
:102060008168C900C90F11D181687D4A11400122E0
:102070001207114381607C487A490068FEF738F8FE
:10208000400000E0401E00900028FBD120688168DD
:102090000127C900C90F002907D1A16D10221143E2
:1020A000A165E16D3943E165012602F038F8A16DC3
:1020B000C90601D4002804D0A06D10210843A065F2
:1020C000CAE0A06DFF210131884302210843A065C9
:1020D000206802F020F8002822D12168C868182260
:1020E0009043A2681043C860206801696268890053
:1020F0008908920F920711430161032160688907E3
:1021000088420DD0494288420AD04900884207D00F
:1021100056498A680F239B049A43184002438A60F9
:10212000207EA27E8503607EC003054350030543E5
:10213000206B002801D0012000030543E06805431F
:102140002069002802DA4000400801E00120400533
:10215000214605432031087B400005430298054392
:102160000878012808D1002A1DD0A06D2022104334
:10217000A065E06D3843E065606A002806D0FF2363
:10218000C1331840A26A284302431546626C206C92
:10219000E36C1043A26C097F1A431043019A104369
:1021A000012904D004E0012000040543E4E738439A
:1021B0002168CA682E4B1A402A43CA6021680A69FE
:1021C0002C4B1A4002430A610021626B206801F027
:1021D000D2FF2949A26B206801F0CDFF20690028B9
:1021E0002AD001214905884218D1216E00208200A1
:1021F0000B46D340DA43120702D0401C0828F6D31E
:10220000012819D02068826A227F9200121FD3060B
:102210000F22DB0ED2439A400A4382622068C068D4
:1022200016490840A8420ED10020E065A06D800844
:102230008000401CA06510E02068816A0F22D24314
:1022400011438162EAE7A06D02218843102108430F
:10225000A065E06D3843E06501263046F6E60000F3
:10226000E8FFFF7F400D0300E00000200027014051
:102270001902FEFF02FCFFDF04FFFF07E7FF3F83B9
:10228000F0B587B0054614216846FDF762FF1D4989
:102290002868884234D11C480268012109050A4394
:1022A000026000680840059017484038416B0122E1
:1022B00011434163406B2026104000960590032097
:1022C00001900027052069460297000700F034FAC4
:1022D0000F4C0E482060A7600520E76060608020FA
:1022E00020614000606127628000E661A0612046B5
:1022F00000F006F9002801D0FFF7D4FA2C65A5629A
:1023000007B0F0BD00240140401002400800024028
:1023100044020020F7B50446006801F000FF0028E1
:1023200045D125464035287D012840D001272F750D
:102330002068C1681F4EC9070CD101F0ECFE0028CF
:1023400004D0206881683140891C81602068C168A0
:102350003943C1602046FEF7D9FB002826D1A06D85
:1023600015490840FF2101310843A0650020E065C0
:10237000226D1249D162226D11491163226D1149FA
:10238000516322681C211160287520684168102261
:10239000114341602168206D4031029B019A00F099
:1023A000FFF821688A683240121D8A60FEBD022053
:1023B000FEBD0000E8FFFF7FFEF1FFFF690A000895
:1023C000030B0008E90A0008F8B501460024203193
:1023D00001220A714B79022B03D00421C16301242D
:1023E0002DE003681D680E26B5431D6003681D6857
:1023F0006D086D001D60436C1D68FF260136B543F6
:102400001D60104B5D68066C1C273E401746B740A8
:102410003D435D60836CC56C5D60036D002B07D030
:102420001E68FF250135AE431E60436D856D5D60FE
:102430004A7100220A71816B002900D0884720462A
:10244000F8BD000000000240F0B42C490C6802689E
:102450001368056C1C273D400426AE40264211D06F
:102460005E070FD513689B0603D4146804239C43AE
:1024700014604B68046C04223C40A24013434B6040
:10248000016B1CE00227AF40064627402036002F94
:1024900019D09F0717D513689B0605D413680A2423
:1024A000A3431360012272714B68046C1C22144018
:1024B0000222A24013434B6000213171C16A0029FE
:1024C0001AD0F0BC08470827AF40274214D01B079A
:1024D00012D513680E24A34313604B68046C1C22AE
:1024E000144001221546A5402B434B60C263727114
:1024F00000213171416BE2E7F0BC704700000240FF
:1025000070B504003DD02448256814212818FDF733
:10251000EFFD800020640220264620367071286876
:102520001E4908402860E168A06862690843216983
:1025300011430843A1690843E1690843216A08433C
:1025400021680A68104308602046FEF7C1FE012199
:10255000A06889030025884200D16560616C2079FC
:102560000860A06CE16C41606068401E03280AD8D6
:102570002046FEF7C5FE206D0560606DA16D4160CF
:1025800004E0012070BD25656565A565E563012052
:1025900070713571002070BDF8FFFDBF0F80FFFF27
:1025A000F8B5054604462035287900278C460128D1
:1025B0000AD00120287168790026012806D02E71E2
:1025C00002272E713846F8BD0220F8BD022068713E
:1025D000E6632068016849084900016061462046B9
:1025E000FEF7A0FE206B00282068016801D00E22B3
:1025F00005E0042291430160206801680A2211432A
:102600000160606C0168CA03084902D502680A4388
:102610000260206D002802D002680A430260206830
:102620000168012211430160CBE7000000010000B6
:10263000F8B51D4D064628780F4601280AD001201E
:102640002870002068607D20C000FFF76FF9002827
:1026500002D026E00220F8BD3168042904D0002110
:10266000C9433960746812E0FFF71EF97D20C0008D
:10267000FFF75CF915E02046FFF720F97D20C00048
:10268000FFF754F9002801D03C6005E0641CB268F3
:1026900071688918A142EED804494A6902239A4315
:1026A0004A6100212970F8BDAC03002000200240DF
:1026B000F0B51FB4144C06462078154601280AD000
:1026C0000120207000277D20C0006760FFF72EF9F1
:1026D000002803D010E0022005B0F0BD012E0DD07F
:1026E00029460198FFF708F97D20C000FFF71EF981
:1026F00006494A69B2434A612770EDE72A46039BBF
:102700000198FFF7EBF8EFE7AC0300200020024050
:10271000064900204A69002A07DA054A8A60054A04
:102720008A604969002900DA0120704700200240D0
:1027300023016745AB89EFCDF0B5002388E0012286
:102740009A409446144022007ED04C68022C01D05E
:10275000122C0CD1DC08A40027183C6A5D07ED0E92
:102760000F26AE40B4430E69AE4026433E62056874
:102770005E000324B4400F79A543BF07BF0FB740E5
:102780002F4307604D68012D05D0022D03D0112D78
:1027900001D0122D0ED18568CF68A543B7402F43D5
:1027A000876047686546AF430D79ED06ED0F9D40A4
:1027B0003D434560C568A5438C68B4402C43C46064
:1027C0004C68E40043D59D08244CAD002F193C6EA5
:1027D0009D07EE0E0F25B540AC4305252D07A842F9
:1027E00001D100250FE01E4DA84201D101250AE0CC
:1027F0001C4DA84201D1022505E01B4DA84201D184
:10280000032500E00525B5402543144C3D66134DD6
:1028100080352E684F689643FF0300D516432E601F
:102820006E684F689643BF0300D516436E602568F7
:102830004E689543F60200D51543256065684E68DD
:102840009543B60202D500E001E0154365605B1CCC
:102850000A681446DA4000D071E7F0BD0018024063
:102860000004005000080050000C0050002A01D065
:10287000816170478162704701488068704700003D
:10288000E400002010B508480024016882151143B7
:102890000160204600F00AF8002801D0012401E080
:1028A00000F028F8204610BD0020024070B50F4E01
:1028B000002471680546002915D07D20C000FDF771
:1028C00017FC01460A480068FDF712FC00F0FAFB0D
:1028D000002808D1042D06D200222946401E00F00F
:1028E0002BF8356000E00124204670BDE400002094
:1028F000E000002008B50948016801221143016089
:1029000000681040009005484038C26B01040A433B
:10291000C263C06B0840009008BD00004010024038
:10292000002805DBC106C90E012088400149086066
:102930007047000000E100E010B502F0BBFF10BDE1
:1029400010B50F4C216803225202914301432160CC
:10295000C11FFF39FA390ED10A48062100684843E1
:102960000949FDF7C5FB401C02E0002805D0401EC8
:1029700061694905F9D4002010BD032010BD000095
:1029800000700040E000002040420F00F8B504460F
:10299000006800264D4D800358D54C48002740382C
:1029A000C06BC00009D449484038C26B01040A43D7
:1029B000C263C06B0840012700904548016882153A
:1029C00011430160FFF758FF009005E0FFF754FF47
:1029D0000099401A022825D83D480068C005F5D561
:1029E000E8690321090208400FD0616981420CD0D7
:1029F000E86903210902EA698843012109040A43BD
:102A0000EA61EA698A43EA61E861C0070FD0FFF72B
:102A100033FF009008E0FFF72FFF0099411A2D487F
:102A2000814201D9032609E0E8698007F3D5E86906
:102A300003210902884361690843E861002F05D03A
:102A400022484038C26B01048A43C2632078C00721
:102A500005D0686961688008800008436861207853
:102A6000400606D56869032109038843A168084325
:102A700068612088400411D5686921698000800858
:102A800008436861012120698907884206D10F48FF
:102A90004038C168012212041143C160208800053A
:102AA00012D56869032189038843E1680843686196
:102AB0000121E0688903884206D104484038C16892
:102AC000012212041143C1603046F8BD401002409B
:102AD0000070004088130000F8B50F46060043D090
:102AE0004D4D28684007400FB84213D22868C008EF
:102AF000C00038432860FFF7BFFE044605E0FFF73B
:102B0000BBFE011B4548814261D828684007400F41
:102B1000B842F4D13068424C81070DD5400704D546
:102B2000A068072109030843A060A0680F210902DB
:102B30008843B1680843A0603078C00732D070681D
:102B400001280AD002280BD000280FD03449403188
:102B500003280ED0C969890704E02168890301E0D0
:102B600021688901002906DB0120F8BD216849059B
:102B7000F8E7096AEFE7A168C908C9000143A16045
:102B8000FFF77AFE009006E0FFF776FE0099411A03
:102B9000224881421BD8A068382108407168C900CA
:102BA0008842F1D128684007400FB84217D91A4827
:102BB0000168C908C90039430160FFF75DFE054699
:102BC00007E0FFF759FE411B1448814201D9032059
:102BD000F8BD114800684007400FB842F1D1307885
:102BE000400706D5A068072109038843F168084318
:102BF000A06000F031F8A1683C2289091140094A1F
:102C0000515CC906C90EC8400749086007480068FA
:102C1000FFF74CFEF8BD00000020024088130000C2
:102C200000100240FC600008E0000020E4000020EA
:102C30000648074900688968064A4904490F89001F
:102C4000515CC906C90EC84070470000E000002072
:102C5000001002403C61000810B5204CA068204ADA
:102C60008006400F16D0A0688006410F5010012941
:102C70000FD0A1688906490F022912D0A0688006EA
:102C8000400F042823D0A0688006400F032821D0DD
:102C9000002010BD206801218004400F81401046B3
:102CA00012E0E1688B07E1689B0F4906490F491C58
:102CB000032B00D01046FDF71BFAE1684904490ECA
:102CC0004843E168490F491CFDF712FA10BD012085
:102CD000C00310BD7D20000210BD000000100240A6
:102CE0000024F400F8B504007ED020783827C0070F
:102CF000EB4D002846D0A868E96838408907890F5D
:102D0000102802D008280BD001E0032908D00120A8
:102D10006268000482420AD129680143296015E0F3
:102D2000286880032ED560680028DDD02AE00523BE
:102D300001211B0489049A422A6802D10A432A60AD
:102D4000EAE782432A602868884328606068002890
:102D50000CD0FFF791FD064604E0FFF78DFD801BC8
:102D6000642873D828688003F7D50BE0FFF784FD4B
:102D7000064604E0FFF780FD801B6428F1D8286830
:102D80008003F7D42078800769D5A868E9683840BF
:102D90008A070721920FC902102802D0002813D0F9
:102DA00001E0022A10D0E068002846D02868884355
:102DB0002169084328602868FF2101310843286001
:102DC000FFF75AFD06462CE02A68520502D5E26854
:102DD000002A89D06A687F231B029A4363691B0219
:102DE0001A436A60002800E08DE00ED1286888430D
:102DF000216908432860286801218004400F814030
:102E0000A848FDF775F9A8490860A8480068FFF7C9
:102E10004DFD002877D122E0FFF72EFD801B022810
:102E20009FD828684005F7D568687F210902884344
:102E3000616909020843686011E02968FF200130D8
:102E400081432960FFF718FD064605E098E0FFF78B
:102E500013FD801B022884D828684005F7D4207809
:102E6000934E00072ED5A8688006400F03280AD08D
:102E7000A0690028306A16D0012108433062FFF7AC
:102E8000FBFC07460BE0306A80071BD5A0690028D1
:102E90009FD017E0FFF7F0FCC01B022870D8306A03
:102EA0008007F7D50EE0400840003062FFF7E4FCF1
:102EB000074604E0FFF7E0FCC01B022860D8306A38
:102EC0008007F7D4207840076CD5A86800278006D3
:102ED000400F042818D0E86BC00008D4E96B01202B
:102EE00000070143E963E96B014001270091714844
:102EF0000168C90519D40168821511430160FFF703
:102F0000BBFC00900DE083E0F06980074AD5A06823
:102F100000287DD046E0FFF7AFFC0099401A022858
:102F20002ED864480068C005F5D5A168012910D0E5
:102F300004200529F16911D049084900F161F169BE
:102F40008143F161A068002816D0FFF795FC00903E
:102F50000EE0F06901210843F061F3E70143F161FC
:102F6000F7E7FFF789FC0099411A534881426DD871
:102F7000F0698007F5D50EE0FFF77EFC009007E0D2
:102F800064E0FFF779FC0099411A4B4881425DD813
:102F9000F0698007F5D4002F04D0E96B0120000709
:102FA0008143E963E069002877D0A9688906490F61
:102FB000022951D001263606022828680DD0B043D8
:102FC0002860E86880088000E860E8683B490840BD
:102FD000E860FFF751FC04463AE0B0432860FFF791
:102FE0004BFC074604E0FFF747FCC01B02282DD826
:102FF00028688001F7D4616A206AA26A0843E16AFE
:10300000120211430843216B0843E9682C4A00E08F
:1030100041E011400843E860286830432860E868D0
:10302000012109070843E860FFF726FC044604E095
:10303000FFF722FC001B022808D828688001F7D57A
:103040002BE0FFF719FC001B022801D90320F8BD73
:1030500028688001F5D420E00128F8D0E868226AC9
:103060008107890F914216D17021626A0140914215
:1030700011D17F21A26A09020140120291420AD1B4
:103080001F214904E26A0140914204D1400F216BA3
:103090004007884201D00120F8BD0020F8BD0000A3
:1030A000001002400024F400E0000020E4000020B2
:1030B000401002400070004088130000FFFFFEEF48
:1030C0008C80C11F094910B5401E884201D90120DA
:1030D00010BD074C60610321081F02F0EBFB0020CC
:1030E000A06107202061002010BD0000FFFFFF004D
:1030F00000E000E0704770477047000070B503467D
:1031000020331A7F012A4BD001221A770325CA687F
:103110002D02AA438D6800682A430125AD02AA4307
:103120004D6800242A430125ED02AA430D682A4375
:1031300001252D03AA430D692A4301256D03AA43E6
:103140004D692A430125AD03AA430D6B2A430F2580
:103150002D04AA430D8B2D042A43124DA84204D1FD
:1031600001263607B243CE693243A84214D10F2557
:103170002D05AA430D8D2D052A4301252D06AA43B1
:103180000D6A2A4301256D06AA434D6AC96A2A437E
:1031900001256D07AA430A4342641C77002070BDD5
:1031A000022070BD002C0140F0B5034620331A7F89
:1031B000012A1ED001271F7702225A77046862680D
:1031C000A5680D4EB44205D116460F22120596434E
:1031D0004A6832437026B2430E68896816438022DB
:1031E000954329436660006881605F770020187707
:1031F000F0BD0220F0BD0000002C014070B50400BD
:1032000005D025462035687F002802D006E0012041
:1032100070BD00202877204600F00AF80220687769
:10322000211D206801F0BAFD01206877002070BDE3
:1032300008B500681049884208D110480268C114D6
:103240000A43026000680840009008BD0C498842AB
:10325000FBD10A484038C26B02210A43C263C06BEB
:1032600000220840009011461020FFF765FB102057
:10327000FFF756FB08BD0000002C01404010024043
:10328000000400400168CB6801221343CB60006852
:103290008168064B1940062905D01304994202D0D3
:1032A0000168114301600020704700000700010021
:1032B00070B5054604462035287F012817D0012621
:1032C0002E7702206877226890682E4B1840FF23E3
:1032D0001B02984390600A68502A32D00EDC202AE4
:1032E0004CD006DC002A49D0102A3BD146E002200F
:1032F00070BD302A42D0402A34D137E0602A28D02D
:10330000702A12D001200003121A2BD0824229D138
:10331000CB684A688968206801F089FD2068816867
:1033200001229203114381601CE0CB684A688968DE
:10333000206801F07CFD216888687722104388604E
:1033400010E0CA684968206801F0FEFE502120683C
:1033500006E0CA684968206801F007FF602120681C
:1033600001F070FD6E770020287770BDCA6849684B
:10337000206801F0E9FE40212068F1E7114620684D
:10338000EEE7000088FFCEFF7047000070B50446EE
:10339000006801690025C9438907002915DBC16858
:1033A000C943890711D4E91E0161012020772068F3
:1033B00080698007204602D0FFF7E6FF04E000F0B6
:1033C000DFF8204600F08BF9257720680169C943B2
:1033D000490717D4C168C943490713D40421C94315
:1033E000016102202077206880698005800F2046D7
:1033F00002D0FFF7C9FF04E000F0C2F8204600F059
:103400006EF9257720680169C943090716D4C16898
:10341000C943090712D40821C94301610420207758
:103420002068C0698007204602D0FFF7ADFF04E0A6
:1034300000F0A6F8204600F052F9257720680169CF
:10344000C943C90617D4C168C943C90613D410219A
:10345000C9430161082020772068C0698005800F7A
:10346000204602D0FFF790FF04E000F089F82046E4
:1034700000F035F9257720680169C943C90708D1EB
:10348000C168C943C90704D1891E0161204600F003
:1034900053F920680169C943090609D4C168C943C1
:1034A000090605D48021C94301612046FFF723FEA8
:1034B00020680169C943C90508D4C168C943090620
:1034C00004D4124901612046FFF714FE2068016907
:1034D000C943490609D4C168C943490605D44021F6
:1034E000C9430161204600F047F920680169C943DA
:1034F000890609D4C168C943890605D42021C94376
:1035000001612046FFF7F8FD70BD0000FFFEFFFFE0
:1035100070B586B0044614216846FCF71AFE1549BA
:103520002068884223D11448416B0126314341630E
:10353000416B31400591416B022421434163406B53
:1035400000252040059009200002694631C1052070
:103550006946000703950494FFF7EEF84820694692
:1035600031C16946054804960395FFF7E5F806B0B2
:1035700070BD0000002C014000100240000400500B
:103580007047F8B5064604462036307F0D460128C0
:103590000ED0012030770220707708270C2A43D004
:1035A00008DC002A0BD0042A19D0082A77D12BE096
:1035B0000220F8BD102A4DD0142A70D15AE020689C
:1035C00001F072FC2068816939438161206881695A
:1035D000042291438161206881692A6911E0206891
:1035E00001F0A0FC206881690122D20211438161AF
:1035F00020688169521091438161206881692A693C
:103600001202114381614AE0206801F0C9FC206880
:10361000C1693943C1612068C16904229143C16114
:103620002068C1692A6912E0206801F0F7FC20686F
:10363000C1690122D2021143C1612068C26901211E
:1036400089028A43C2612068C1692A691202114352
:10365000C16124E0206801F017FD2068416D394305
:1036600041652068426D04218A4342652068416DAE
:103670002A6912E0206801F035FD2068416D0122C1
:10368000D202114341652068426D012189028A43BB
:1036900042652068416D2A6912021143416501208B
:1036A000707700203077F8BD70B5040005D025464E
:1036B0002035687F002802D006E0012070BD002080
:1036C0002877204600F00AF802206877211D20683C
:1036D00001F064FB01206877002070BD70477047DF
:1036E00010B504460068012201F094FB0E482168E1
:1036F000814205D00D48814202D00D48814204D15B
:10370000486C0122D2031043486420688168094A4A
:103710001140062906D0D21F914203D00168012230
:1037200011430160002010BD002C01400044014005
:1037300000480140070001000C4900680968884200
:1037400013D10B48007800280FD00A484168491C63
:1037500041600178491C01704178491C41708178B1
:10376000491C8170C178491CC1707047E00200207B
:10377000C4000020D4000020704770477047704795
:1037800070470000F8B503680446DA69186899685C
:1037900016072546360F8035002E60D0584EFF277D
:1037A00021370E400740374372D0D70706D0C705F0
:1037B00004D501271F62AB683B43AB60930708D574
:1037C000CB0706D0276802233B62AB6804273B4344
:1037D000AB60530708D5CB0706D0276804233B62AC
:1037E000AB6802273B43AB60130709D52023034096
:1037F000334305D0266808233362AE681E43AE60AB
:10380000AB68002B38D092060AD520221040D20592
:103810001140084304D0E16E002901D020468847BA
:10382000A86821688968490601D4000729D520467F
:1038300001F0AEFD2068816849061ED582684021EE
:103840008A438260A06F002817D02E498163A06F41
:10385000FEF7BAFD00280FD0A06F816B0BE0960633
:1038600016D5012720263F0706400F403E430FD0C4
:10387000E16E22E020468847F8BD2046FFF780FF32
:10388000F8BD2046FFF77CFF0020A860F8BDFFE7E9
:10389000D60208D54E0206D5012000051862204642
:1038A000FFF76DFFF2E716060AD501278026FF0510
:1038B000064039400E4303D0216F0029DAD1E5E7F5
:1038C00051060DD541060BD51A68204640218A4382
:1038D0001A60202129600021216700F0F3F8D5E764
:1038E000110205D5410003D52046FFF747FFCDE77C
:1038F000D101CBD50028C9DA2046FFF73EFFC5E746
:10390000010000107D53000870B5040006D0204669
:10391000803005460068002802D007E0012070BD15
:1039200000217C200155204600F026F82420286044
:1039300020680168490849000160204601F03CFD0B
:103940000128ECD0A06A002802D0204601F07EFCBD
:10395000206841680922D202914341602068816851
:103960002A2291438160206801680122114301608D
:10397000204601F0D1FC70BD10B586B0044614217C
:103980006846FCF7E6FB15492068884224D11448B4
:10399000C26B012149040A43C263C26B0A4005920B
:1039A000426B01210A434263406B04910840059039
:1039B0000C2000900220019000200290039005202E
:1039C00069460007FEF7B8FE002201211C20FEF721
:1039D000B3FF1C20FEF7A4FF06B010BD004400405A
:1039E00000100240FFB5074604468037386885B0AE
:1039F0000D46202864D1002D0CD00798002809D04E
:103A00000120A1680003814207D12069002804D168
:103A1000E80702D0012009B0F0BD204660300290D6
:103A2000007F01284CD00298012101770020B86066
:103A300021203860FEF720FF019026464036079887
:103A4000B0820798F0820120A1680003814202D170
:103A50002069002802D00395002515E0002003907E
:103A600012E000228021204601F016FE002818D125
:103A70000398002817D02168007888620398401CBA
:103A80000390F08A401EF082F08A019B002808987B
:103A90000090E6D100224021204601F0FDFD0028E3
:103AA00008D00320B7E728882168C005C00D8862C8
:103AB000AD1CE6E720203860029900200877AAE7CD
:103AC0000220A8E77047FEE7FF210A480131816222
:103AD0000422521EFDD1802282610322521EFDD19A
:103AE00081610322521EFDD181620320401EFDD15F
:103AF000704700000004005010B508210020104B52
:103B000080229A6104224C01521EFDD10EE0032254
:103B1000521EFDD100BF9C610322521EFDD1400602
:103B20001A69000E120601D5012210430A46491EE9
:103B3000C9B2002A9C62EAD10321491EFDD110BD01
:103B400000040050FF230F48013383620421491E03
:103B5000FDD1802181610322521EFDD183610322A8
:103B6000521EFDD1026981620322521EFDD10269FB
:103B7000120601D50020704781620320401EFDD14E
:103B80000120704700040050FF230A48013383627C
:103B90000421491EFDD1802282620321491EFDD1EC
:103BA00083610321491EFDD182610320401EFDD1A6
:103BB0007047000000040050FF210E48013181626F
:103BC0000422521EFDD1802282610322521EFDD1A9
:103BD00081610322521EFDD102698162120603D562
:103BE0000320401EFDD170470320401EFDD101205F
:103BF000704700000004005030B5082280255401B1
:103C00000F4913E003235B1EFDD1030604D58D612C
:103C100003235B1EFDD103E08D6203235B1EFDD1F8
:103C20004006000E8C6103235B1EFDD11346521E1D
:103C3000D2B2002B8C62E5D10320401EFDD130BDF5
:103C400000040050FFB5C04C8DB02068039065683B
:103C5000A0680190E068179900900846FCF7DDFA2B
:103C6000169907460846FCF7D8FA10990646084602
:103C7000FCF7D3FA3146FCF777FA3946FCF774FAC9
:103C800002F0C6F9064601461098FCF7C6FA1090F5
:103C900031461698FCF7C1FA169031461798FCF792
:103CA000BCFA1790A168059120680790FCF7B5FA57
:103CB0000990E16860680F460646FCF7AEFA09997C
:103CC000FCF7A3FA0121FCF723FB0A90394605987B
:103CD000FCF7A3FA099031460798FCF79EFA099978
:103CE000FCF742FA0121FCF713FB3946089008461D
:103CF000FCF793FA059906900846FCF78EFA0746FA
:103D000031460846FCF789FA079906460846FCF74B
:103D100084FA3146FCF779FA3946FCF776FA0699C7
:103D2000FCF722FA064608991798FCF776FA074638
:103D300031461698FCF771FA3946FCF766FA099095
:103D400031461098FCF769FA06460A991798FCF76D
:103D500064FA3146FCF759FA0B900A991698FCF769
:103D60005CFA064608991098FCF757FA3146FCF7BA
:103D70004CFA074675490998FCF74FFA2169FCF798
:103D8000F3F90646206171490B98FCF746FA616920
:103D9000FCF7EAF9606106906C493846FCF73DFA99
:103DA000A169FCF7E1F9A061059009990D98FCF76C
:103DB000DBF93146FCF7D8F90D900B990E98FCF71A
:103DC000D3F90699FCF7D0F90E9039460F98FCF715
:103DD000CBF90599FCF7C8F901460F900098FCF75C
:103DE0001CFA07460E990198FCF717FA06460121BE
:103DF0002846C90748400D99FCF70FFA3146FCF7F1
:103E000004FA3946FCF701FA5149FCF706FA03991E
:103E1000FCF7AAF9206007900E990098FCF7FDF9CD
:103E200007460F990198FCF7F8F9064603990D9893
:103E3000FCF7F3F93146FCF797F93946FCF7E5F959
:103E40004349FCF7EAF92946FCF78EF9606007461A
:103E500000990D98FCF7E1F9049028460F99FCF7BA
:103E6000DCF906460E990398FCF7D7F93146FCF7C2
:103E7000CCF90499FCF778F93549FCF7CEF90199AA
:103E8000FCF772F9A060064601990D98FCF7C5F998
:103E9000019028460E99FCF7C0F905460F99039842
:103EA000FCF7BBF92946FCF75FF90199FCF7ADF97E
:103EB0002749FCF7B2F90099FCF756F90146E06092
:103EC000FCF7ABF9314602900846FCF7A6F9054627
:103ED00039460846FCF7A1F9079906460846FCF75B
:103EE0009CF93146FCF740F92946FCF73DF9029967
:103EF000FCF73AF902F08CF8054601462068FCF719
:103F00008CF9206029466068FCF787F960602946D3
:103F1000A068FCF782F9A0602946E068FCF77DF90B
:103F20000C49E0600420085EFCF766FA0A49FCF7D9
:103F300074F90649FCF771F9084C2168FCF714F98B
:103F4000206011B0F0BD0000A80000206F12833A7D
:103F50006F12033A88000020F1FF793D2001002014
:103F600010B50120FDF7A0FB0C4A0D49AB2806D087
:103F7000C00282188A600B4A8218886808E00A48E2
:103F80008860AB2010BD03685B1C05D0001D8860F5
:103F90009042F8D3802010BD002010BD0000010821
:103FA00000000020FE0701080058060810B5752023
:103FB00000F066FE682801D0002010BD00216B20B3
:103FC00000F084FE104C2046401EFDD10021192037
:103FD00000F07CFE2046401EFDD100211A2000F09A
:103FE00075FE2046401EFDD118211B2000F06EFEFC
:103FF0002046401EFDD11F211C2000F067FE641EDC
:10400000FDD1012010BD00001F4E000010B50C4C6A
:10401000002220212046FEF729FC00221021204604
:10402000FEF724FC002240210648FEF71FFC012178
:104030000520002249020007FEF718FC10BD000011
:10404000000400500008005010B50B4C0122202144
:104050002046FEF70BFC012210212046FEF706FC4D
:10406000012240210548FEF701FC012205205102F2
:104070000007FEF7FBFB10BD0004005000080050D5
:1040800070B5104D104C2968A160104926780A8837
:1040900041001046FCF72CF821462A464968126870
:1040A000511A002E05D081420BD3FFF7AFFF00203D
:1040B00004E0814205D3FFF7C7FF01202070286884
:1040C000606070BDD800002038000020DC000020B7
:1040D00010B50024FFF7B8FFC820FDF747F9FFF738
:1040E00095FFC820FDF742F9641CE4B2032CF1D31C
:1040F0000024FFF7A9FF6420FDF738F9FFF786FFDA
:104100006420FDF733F9641CE4B2032CF1D364207E
:10411000FDF72CF910BD8068C007C00F704780689C
:104120004007C00F7047C0680005800F01D0002015
:104130007047012070470000094B10B5994201D12A
:104140000C3004E08B02DB0F9B001818A0300368D2
:10415000044C0A400C40A3431343036010BD00000D
:104160000000C07CFFFFC77C026807239B059A43C1
:104170000A430260704710B54369042421400724B4
:104180008C40A3438A401343436110BD10B51C48C3
:1041900041780278090211434ABA1A490B88D31AA6
:1041A000194A1380C37884781B0223434C885BBA76
:1041B0001B1B5380437904791B02234389885BBA14
:1041C000591A9180417A027A090211434ABA0F4979
:1041D0000B88D31A0E4A1380C37A847A1B022343B6
:1041E0004C885BBA1B1B5380437B047B1802204323
:1041F000898840BA401A908000F00CF810BD000089
:10420000F40000204A00002076000020500000202A
:104210007C000020F8B53E4C00256078002839D09D
:10422000A0783C4E002815D0401CC2B2A2703A497A
:104230006368485FC01860600223CB5EA768DB1923
:10424000A36000930423CB5EE1685F18E760FB2A5C
:1042500009D01DE035807580B5806560A5600120BE
:10426000E560A070F8BDFA21FBF758FF3080FA2115
:104270000098FBF753FF7080FA213846FBF74EFF9A
:104280000121C902401AB080A5706570FDF766F97A
:10429000FFF7DAFE20780028E4D0E078002815D077
:1042A000401CC1B2E1701D480022825E2369D21811
:1042B00022610223C35E66699F1904236761C35E9E
:1042C000A0691E18A661FB290AD01EE014480580CB
:1042D00045808580256165610120A561E070F8BD9C
:1042E000FA211046FBF71AFF0D4CFA2120803846C0
:1042F000FBF714FF6080FA213046FBF70FFFA08028
:104300000348C5700570FDF743F9FFF79DFEF8BD42
:10431000180000204A000020760000207C000020C9
:1043200050000020F8B50E24FFF70CFC00281AD02E
:10433000D020FFF761FCFFF73FFC002810D03B20A6
:10434000FFF75AFCFFF738FCFFF7FCFBD120FFF723
:1043500053FCFFF731FCFF26164F0136164D1CE0CB
:10436000FFF712FC0020F8BDFFF7C6FB0D21091B6B
:104370007854AE620320401EFDD100BF8020A862A9
:104380000320401EFDD100BFAE610320401EFDD1C1
:1043900000BFAE620320401EFDD1641E2406240E21
:1043A000E2D1FFF7A9FB7873FFF78EFBFFF7ECFB79
:1043B0000120F8BDF40000200004005010B53B209F
:1043C00000F05EFC174C20703C2000F059FC60703F
:1043D0003D2000F055FCA0703E2000F051FCE07044
:1043E0003F2000F04DFC2071402000F049FC60713E
:1043F000432000F045FC2072442000F041FC607234
:10440000452000F03DFCA072462000F039FCE0722F
:10441000472000F035FC2073482000F031FC607329
:1044200010BD0000F400002010B58AB018216846C5
:10443000FBF78FFE00241F48069407941C4908943C
:1044400001608460C4600905046141600421416128
:10445000047644760122827601462031C2610C70D6
:10446000446284620A730463446384630C77C464A3
:10447000FDF7DEFD002801D0FDF714FA03208005CA
:10448000019069460B48FDF77DFB002801D0FDF740
:1044900009FA09480690079406A908940548FDF70B
:1044A000B5FC002801D0FDF7FDF90AB010BD0000F1
:1044B00000240140E00100202000001408B5084855
:1044C000816B012211438163806B104000220090B8
:1044D00011460920FEF730FA0920FEF721FA08BD3F
:1044E00000100240F0B587B014216846FBF731FE9A
:1044F0002C48416B012529434163416B29400591BB
:10450000426B04210A434263426B0A400592426BAC
:1045100002210A434263406B0E02084005900520C9
:10452000002231460007FEF7A1F9002240211E4873
:10453000FEF79CF9FF27B137002239461B48FEF7EA
:1045400095F91B48019000240520694600950294C6
:104550000007FEF7F1F810200090032001900520DD
:10456000694602940007FEF7E7F8052002946946C1
:104570000007009601950394FEF7DEF840200090B6
:1045800002946946019503940748FEF7D5F8029412
:1045900069460648009701950394FEF7CDF807B0E9
:1045A000F0BD000000100240000800500004005060
:1045B0000000111010B59CB0002419941A9417949F
:1045C0001894149415941C2168461694FBF7C1FDA9
:1045D000342107A8FBF7BDFD3C483B49016003219E
:1045E0008460416004613A494461C1608021816115
:1045F000FEF704FE002801D0FDF754F90120000366
:10460000179017A93148FEF753FE002801D0FDF797
:1046100049F92E48FFF748F8002801D0FDF742F984
:104620001494159414A929481694FEF7BDFD00288A
:1046300001D0FDF737F960200594019400900294B1
:10464000039404940022694606942048FEF799FFDB
:10465000002801D0FDF726F9042269461B48FEF721
:1046600090FF002801D0FDF71DF908226946174880
:10467000FEF787FF002801D0FDF714F90C226946E8
:104680001248FEF77EFF002801D0FDF70BF901204C
:10469000079440030C90089409940B9400030A9427
:1046A0000D940E9410900F941194129407A91394E2
:1046B0000648FEF723FD002801D0FDF7F3F8034874
:1046C000FEF726FF1CB010BD002C0140A002002008
:1046D000E703000010B588B0002400940194174847
:1046E00002940394049405941349069401600321F1
:1046F00084604160046112498461C160FEF77EFDFF
:10470000002801D0FDF7CEF8012000030090694693
:104710000A48FEF7CDFD002801D0FDF7C3F8049448
:1047200004A906480694FEF73FFD002801D0FDF7D6
:10473000B9F808B010BD000000040040E0020020FD
:10474000E703000010B50D480B4901604B21C9017A
:10475000416000218160C16001618161C1610162CC
:104760000C22416242618162FFF7CEF8002801D03D
:10477000FDF798F810BD0000004400402003002021
:1047800010B57D24E400A04201DD204602E00028AF
:1047900000DA0020A14201DD214602E0002900DA12
:1047A0000021A24201DD224602E0002A00DA0022B6
:1047B000A34201DD234602E0002B00DA0023044C73
:1047C0006063A163E26302484030036010BD0000F3
:1047D000002C01407047000010B5FFF735FC0E4972
:1047E0000E4B41200B4A00064B600A60886014396A
:1047F00088600CC10A4A3431002384011CC120396D
:104800001CC11C310860074848608860FCF7D8FE6E
:1048100010BD0000CDCC9C40400100200AD7A33C35
:104820003333B33FCDCCCC3D7047000030B589B0B9
:1048300024206A4610704D2050703E209070062053
:10484000D0706C20154C164D107129466068FBF72E
:10485000E4FCFBF7E3FD6A465071001290712946B3
:10486000A068FBF7DAFCFBF7D9FD6A46D0710012AD
:1048700010722068A9024840FBF7D0FD6A465072CA
:10488000001290726846FDF7A9F86A46D07220219E
:104890006846FCF799FA09B030BD000020010020FD
:1048A0000000204170B588B024206A4610704D2069
:1048B00050703E2090701720D0700B20107142482D
:1048C000424900885071001290714A6B7D20C000EF
:1048D00013186A46D3714A6B1218130A6A46137288
:1048E0008A6B13186A4653728A6B1218130A6A4647
:1048F0009372CA6B13186A46D372C96B0918090AF6
:104900001173324940310A6813186A4653730968B3
:104910002F4C0818000A2F4D907329462068FBF78A
:104920007CFCFBF794FD6A462B4ED07331466068E1
:10493000FBF773FCFBF78BFD6A461074A068FBF76E
:1049400086FD6A46254C507429462068FBF765FCB5
:10495000FBF77DFD6A46907431466068FBF75DFCAD
:10496000FBF775FD6A46D074A068FBF770FD6A46D8
:104970001B4C107529462068FBF74FFCFBF767FDC1
:104980006A46507531466068FBF747FCFBF75FFDF0
:104990006A469075A068FBF75AFD6A46D0751148C3
:1049A00000681076010A5176010C9176000ED076DF
:1049B0006846FDF713F86A46107720216846FCF731
:1049C00003FA08B070BD0000D0000020002C0140A8
:1049D000400100200000204100007A4468010020CE
:1049E0007C0100203400002030B589B024206A46C4
:1049F00010704D2050703E2090701220D0706620B4
:104A0000107130490020085E304CC217920F101808
:104A100080106A465071001290710220085EC21721
:104A2000920F101880106A46D07100121072042084
:104A3000085EC117890F08188010507200122249B1
:104A400090724888D0720012107308885073001258
:104A5000907388884042D073001210740020205E4A
:104A6000FBF7CAFCFD25AD052946FBF7D6FBFBF796
:104A7000D5FC6A465074001290740220205EFBF749
:104A8000BBFC2946FBF7C9FBFBF7C8FC6A46D074A0
:104A9000001210750420205EFBF7AEFC2946FBF7E0
:104AA000BCFBFBF7BBFC6A4650750012907568466C
:104AB000FCF794FF6A46D07520216846FCF784F91C
:104AC00009B030BD760000207C000020820000206C
:104AD000F8B5384D384E28880027384CB04209D2F6
:104AE0006078401CC0B260700F2810D9207801286F
:104AF00002D00CE067700AE02770FFF787FA6420A5
:104B0000FCF734FCFFF7A0FA6420FCF72FFC2888A0
:104B1000B04215D26888B04212D2A888AF21C9002D
:104B200088420DD919218901884209D2A078401CF8
:104B3000C0B2A070962811D92078002802D00DE0CC
:104B4000A7700BE001202070FFF760FA6420FCF7EB
:104B50000DFCFFF779FA6420FCF708FC2888B042C6
:104B600025D26888B04222D2A888B0421FD2E0780D
:104B7000401CC0B2E070642818D92078002815D0F5
:104B8000E770FCF709FCFCF701FCFFF73FFA322065
:104B9000FCF7ECFBFFF758FA3220FCF7E7FBFFF7D6
:104BA00035FA3220FCF7E2FBFFF74EFAF8BDE7706A
:104BB000F8BD000010010020140500008E00002048
:104BC00003887D21C9008B4200D80B467D2212014B
:104BD0000380934200D31346038083888B4200D81E
:104BE0000B468380934200D313468380C3888B4255
:104BF00000D80B46C380934200D31346C38043883A
:104C00008B4200D80B464380934200D31346438027
:104C100003898B4200D80B460381934200D313468D
:104C2000038143898B4200D80B464381934200D3D2
:104C30001346438183898B4200D919468181914271
:104C400000D20A46828170477047000070B50B4C55
:104C50002078401CC0B22070012805D0022806D060
:104C60000025032808D105E0FFF7BEFE70BDFFF761
:104C7000DDFD70BDFFF716FE257070BDC60000207B
:104C800010B50446FEF75EFF00281AD0D020FEF7CC
:104C9000B3FFFEF791FF002814D02046FEF7ACFFCB
:104CA000FEF78AFFFEF74EFFD120FEF7A5FFFEF7C5
:104CB00083FFFEF721FF0446FEF706FFFEF764FFC1
:104CC000204610BDFEF760FF002010BD70B50C46F9
:104CD0000546FEF737FF002813D0D020FEF78CFFE3
:104CE000FEF76AFF00280DD02846FEF785FFFEF785
:104CF00063FF2046FEF780FFFEF75EFFFEF744FFEE
:104D0000012070BDFEF740FF002070BD30B597B0A8
:104D100034216846FBF71DFA00240D940E940F947D
:104D2000182111A81094FBF714FA01204002FDF796
:104D300007FE0225E8010390009540200590082019
:104D40000A9080030B900795000304940C9008953B
:104D500009946846FDF7C6FF07200D900F940221C5
:104D60000E9510940DA8FDF7B7FE680311901594E9
:104D700011A8FDF70BFE17B030BD0000012002495D
:104D8000C00688607047000000ED00E010B50248E2
:104D9000FEF7FCFA10BD0000E002002070B50268CA
:104DA000174B184E984201D0B04203D17024A24351
:104DB0004C682243144C154D984208D0B04206D09E
:104DC000134EB04203D0A04201D0A84204D1032622
:104DD0003602B243CE6832438026B2434E69324334
:104DE00002608A68C2620A688262984203D0A04266
:104DF00001D0A84201D1096901630121416170BD5F
:104E0000002C0140000400400044014000480140E3
:104E10000020004010B5CB06DB0E0121046A99404A
:104E20008C430462016A9A401143016210BD30B59F
:104E30008468FF252D021B021343AC430B4323431D
:104E4000836030BD8268034B1A400A4307210A433E
:104E5000826070478FFFCFFF10B500211148FEF729
:104E60003FFC002801D0FCF71DFD04210D48FEF792
:104E700037FC002801D0FCF715FD08210948FEF792
:104E80002FFC002801D0FCF70DFD0C210548FEF792
:104E900027FC002801D0FCF705FD02484030FEF752
:104EA000F1F910BDA0020020F0B5026A52085200CC
:104EB0000262056A43688269164C184E22409208C5
:104EC0000C6892001443022295438A682A43124DCB
:104ED000A84204D0B04202D0114FB84206D10827F0
:104EE000BA43CF681743042297433A46A84204D0F6
:104EF000B04202D00A4DA84206D103252D02AB4391
:104F00004D691D438B692B4343608461496841634C
:104F10000262F0BD8FFFFEFF002C01400044014003
:104F20000048014070B5026A10239A430262046A85
:104F300043688269164D2A4003252D02AA430D6855
:104F40002D021543202294438A6812012243114CFA
:104F5000A04208D11446CA688026B44312012243F5
:104F60004024A24305E00C4CA04202D00B4CA042CE
:104F700008D10324A402A3434C69A4001C438B69F9
:104F80009B0023434360856149688163026270BD71
:104F9000FF8FFFFE002C014000440140004801400B
:104FA00070B5026AFF2301339A430262046A4368C0
:104FB000C269164D2A4092080D68920015430122DD
:104FC000520294438A6812022243114CA04208D133
:104FD0001446CA68C614B443120222430415A243FD
:104FE00005E00C4CA04202D00B4CA04208D1032497
:104FF0002403A3434C6924011C438B691B012343F5
:105000004360C5614968C163026270BD8FFFFEFFE6
:10501000002C0140004401400048014030B5026AC4
:1050200001231B039A430262046A4568C269124B5A
:105030001A4003231B029A430B681B0213430122ED
:10504000520394438A68120322430C4CA04205D0B9
:105050000B4CA04202D00B4CA04206D12C4601259D
:10506000AD03AC434D69AD0125434560C36149685B
:105070000164026230BD0000FF8FFFFE002C014082
:10508000004401400048014070B5026A0126360420
:10509000B2430262036A4268446D0E4D2C400D68B3
:1050A00025437400A3430C8924041C430A4B9842F3
:1050B00005D00A4B984202D0094B984203D14B6964
:1050C000B2431B021A434260456549688165046228
:1050D00070BD00008FFFFEFF002C01400044014026
:1050E0000048014070B5026A01231B059A43026221
:1050F000036A4268456D104C25400C6824022C431D
:1051000001256D05AB430D892D051D430B4B9842C1
:1051100005D00B4B984202D00A4B984206D101268B
:105120001346B6044A69B34392021A434260446587
:105130004968C165056270BDFF8FFFFE002C01400C
:10514000004401400048014030B5036A046A640825
:10515000640004628469F025AC43120122430A24EE
:10516000A3430B438261036230BD30B5036A102450
:10517000A34303628469036A0F252D031203AC4322
:105180002243A024A343090119438261016230BD77
:105190007CB5FFF7C7F8002805D116480168491CFF
:1051A0000160FFF70BF9FEF7F1FF13491348FBF716
:1051B0000BFC13491348FCF7A9FC13491048FCF7F2
:1051C00085FC0D4D0420285EFBF716F906460220EB
:1051D000285EFBF711F904460020285EFBF70CF966
:1051E000034609480196009407C8FEF72BFDFBF71C
:1051F0009DFD7CBD34000020820000207600002050
:10520000880000207C0000200401002010B5FCF77D
:10521000C7FB10BD10B50448FCF7F0FB034902487A
:10522000FBF7F8FD10BD0000200100201001002058
:1052300010B50348034902780348FBF7C7FE10BDC9
:105240008E000020100100200401002010B5018D07
:10525000C90707D001684A6801235B049A43C36AFF
:105260001A434A60018D890707D501684A680123FE
:105270001B049A43036B1A434A60018D490707D503
:1052800001684A6801239B049A43436B1A434A60AE
:10529000018D090707D501684A680123DB039A439A
:1052A000836B1A434A60018DC90607D5026891686D
:1052B00001231B039943C36B19439160018D890638
:1052C00007D501688A6801235B039A43036C1A437C
:1052D0008A60018D490612D503685A6801210905C3
:1052E000446C8A4322435A60426C8A4207D1026866
:1052F000516803235B059943836C19435160018D09
:10530000090607D501684A680123DB04C06C9A438B
:1053100002434A6010BD0000FEB5054600268035F8
:105320000446AE60FDF7A8FA019020680068124FAD
:10533000000709D501210097002249052046019B5D
:1053400000F0AAF900280DD12068006840070BD5AD
:1053500001210097002289052046019B00F09CF95D
:10536000002801D00320FEBD202028606860603442
:1053700026770020FEBD0000FFFFFF0110B5806A08
:10538000002201464031CA83CA82FEF7F9F910BDF6
:1053900001680A68FF2321339A430A6001688A681A
:1053A000044B1A408A60202284210A500021C166E1
:1053B00070470000FEFFFFEFF8B5044680682169E2
:1053C000E26908436169002611430843616E22685F
:1053D00001431068A94B18400843106021684868D1
:1053E000032212039043E26810434860A169206AD7
:1053F000226808439168A24B1940014391602068DC
:10540000C16A626A090909011143C1629D492068A4
:1054100088420FD19C4840698007800F10D0012836
:1054200004D002280CD0032809D101E0042007E0B1
:10543000082005E09549884201D1002000E01020B5
:105440000122D203E169D511914B924F91426FD164
:10545000002806D0022835D004287AD0082869D13F
:105460007AE0FDF7E5FB76E0012815D0022815D09B
:10547000032815D0042815D0052815D0062815D0E6
:10548000072815D0082815D0092815D00A2815D0C6
:105490000B2814D0012512E0022510E004250EE0AF
:1054A00006250CE008250AE00A2508E00C2506E0A0
:1054B000102504E0202502E0402500E08025294653
:1054C00010461BE0606A002815D001282AD0022867
:1054D0002AD003282AD004282DD005282DD006282C
:1054E0002DD007282DD008282DD009282DD00A2806
:1054F0002DD00B2800D0012529461846FAF7F8FDD3
:10550000616840004A088018FAF7F2FD80B201464F
:105510001039B9420ED85F49491C01400007400FBD
:1055200008437FE00225E7E70425E5E70625E3E7F2
:1055300016E00EE08AE00825DEE70A25DCE70C2508
:10554000DAE71025D8E72025D6E74025D4E78025DF
:10555000D2E7FDF781FB0246606A00289AD083E714
:10556000002806D0022835D0042874D0082879D124
:1055700074E0FDF75DFB70E0012815D0022815D01E
:10558000032815D0042815D0052815D0062815D0D5
:10559000072815D0082815D0092815D00A2815D0B5
:1055A0000B2814D0012512E0022510E004250EE09E
:1055B00006250CE008250AE00A2508E00C2506E08F
:1055C000102504E0202502E0402500E08025294642
:1055D00010461BE0606A002815D0012825D002285B
:1055E00025D0032825D0042825D0052825D0062835
:1055F00025D0072825D0082825D0092827D00A2813
:1056000027D00B2800D0012529461846FAF770FD4F
:1056100061684A088018FAF76BFD80B201461039BC
:10562000B9421FD82168C8601DE00225ECE70425B7
:10563000EAE70625E8E70825E6E70A25E4E70C257A
:10564000E2E71025E0E72025DEE704E00AE0402558
:10565000DAE78025D8E7FDF7FFFA0246606A0028FE
:10566000A0D089E7012620460121403041850185EF
:105670000020E06620673046F8BD0000F369FFCFE8
:10568000FFF4FF1100380140401002400044004088
:105690000024F400EFFF0000FFB581B017460E466E
:1056A00004460A9D09E0681C07D0FDF7E5F8049957
:1056B000401AA8420CD8002D0AD02068C169304693
:1056C00088431AD00020B842EDD0002005B0F0BDCC
:1056D00020680168FF22A13291430160206881683F
:1056E00049084900816020212046803001604160E6
:1056F0000020603420770320E8E70120E3E7000082
:1057000010B50248FEF73EF810BD0000200300204F
:105710002021020C01D010211046020A01D01046AF
:105720000839020901D01046091F820801D010462D
:10573000891E420801D0881E7047081A7047000071
:105740004900CA020243100000D004204A0D01D0D3
:1057500001221043044A490D914201D1022108431C
:10576000012800D105207047FF070000F8B54B481D
:1057700000240188671E4A4E30884A4D3A0C0029A1
:105780005BD0494BC91817D0484AD14211D10028E3
:105790007ED0594288420CD1404829466860083979
:1057A0002846FCF745FF002805D100221346314664
:1057B00011E0FBF79DFFF8BD002810D09042F8D112
:1057C0003849384808396E60FCF732FF0028F2D1BA
:1057D0000022324913460120FCF76AFFF8BD2F482A
:1057E000C288600032490090085A824200D127B234
:1057F000BC420FD02B490C39FBF7F8FF012809D028
:105800002B490098085A27490C390988FCF710F8E9
:105810000028E3D1641CA4B2102CE0D3002213466C
:105820001E490120FCF744FF0028D7D109E01D499B
:105830001C480839FCF7FCFEF8BD0028B9D090429E
:1058400001D16E60F3E71648C28819496600885B8B
:10585000824200D127B2BC420ED012490C39FBF76C
:10586000C5FF012808D00F4911480C39805B098811
:10587000FBF7DEFF0028DFD1641CA4B2102CE2D3BA
:105880000022134606490120FCF712FF002800E021
:1058900000E0D1D101486860C9E7000000000108BC
:1058A000000801080C0000201211FFFFEFEEFFFFBF
:1058B000560000208307FF22DB0E9A408907090E5D
:1058C0009940002808DB830809489B001B181868CA
:1058D00090430843186070470007000F083883089A
:1058E00004489B001B18D86990430843D86170474F
:1058F00000E400E000ED00E0F8B504464F1EC800EB
:105900000838211815461E46086849683A46062395
:105910009A4310D02A463346FAF706FD3A46D2009B
:10592000083AA3181A687F1E5B68FAF775FE06220C
:105930003B469343EED1022F23D0042F11D0062FE4
:105940002FD12A463346FAF7EFFCE36AA26AFAF748
:1059500063FE2A463346FAF7E7FC636A226AFAF7DF
:105960005BFE2A463346FAF7DFFCE369A269FAF7E1
:1059700053FE2A463346FAF7D7FC63692269FAF7E1
:105980004BFE2A463346FAF7CFFCE368A268FAF7E3
:1059900043FE2A463346FAF7C7FC63682268FAF7E3
:1059A0003BFEF8BD10B50122FAF760FF10BD10B53F
:1059B000FAF732FE10BD002210B51346104611460C
:1059C000FAF7DCFE10BD0000034A10B500201107F5
:1059D000FAF74CFF10BD000001FDFFFF02E008C810
:1059E000121F08C1002AFAD170477047002001E059
:1059F00001C1121F002AFBD1704700000149086055
:105A000070470000F0000020F0B504464F008E48BB
:105A10008FB07F080D460D91874228DB4042381831
:105A200020430CD08948874203DC874218D1002CE0
:105A300016D020462946FFF7B5FF0FB0F0BD844AC7
:105A4000844B20462946FAF76FFC07460E46824AE9
:105A5000824B20462946FAF767FC3A46334649E02E
:105A60000120FFF7CBFFFFF7A6FF0FB0F0BD7C488A
:105A7000874243DAF920800587420BDA204629461F
:105A8000FFF75EFE042801D1FFF79EFF204629465E
:105A90000FB0F0BD22462B4610462946FAF744FCCB
:105AA000064602466F480F460B4606217844FFF72C
:105AB00023FF32463B46FAF737FC06906A480791C7
:105AC00032463B4604217844FFF716FF32463B46F8
:105AD000FAF72AFC00225C4BFAF79EFD02460B46C1
