:020000040800F2
:10000000C8070020D500000829410008DB3400089B
:1000100000000000000000000000000000000000E0
:100020000000000000000000000000009D450008E6
:1000300000000000000000007D410008E50000080D
:10004000E700000800000000E7000008E7000008E3
:10005000E7000008E7000008E7000008E7000008E4
:100060000000000021110008E7000008E700000878
:10007000E7000008E7000008E700000800000000B3
:10008000A14600080000000000000000E700000892
:1000900000000000E7000008E7000008E700000893
:1000A000E7000008E7000008E7000008E700000894
:1000B000AD4F00080000000000000000000000003C
:1000C0000348854600F0E8FB00480047A9570008B0
:1000D000C80700200448804704480047FEE7FEE7C1
:1000E000FEE7FEE7FEE7FEE791460008C1000008D4
:1000F00030B50B46014600202022012409E00D46C0
:10010000D5409D4205D31D469540491B2546954047
:1001100040191546521E002DF1DC30BD70B500248B
:100120002546002801DA01244042002901DA012590
:100130004942FFF7DDFFAC4200D04042002C00D026
:10014000494270BDD2B201E00270401C491EFBD290
:1001500070470022F6E710B513460A4604461946D2
:10016000FFF7F0FF204610BDF8B502464A40D40F15
:1001700042004B0052085B089A4202D202460846EF
:1001800011464A0023D0C30D4A00DDB2120EAD1A4B
:10019000202D35DA49020126490AF6058A19002C74
:1001A00000D0524220214F1B1146B9402A4110185D
:1001B000C20D9A4221D0002C17D0012D08DCDA059F
:1001C000801AD20F8019D207DBB200F08CF9F8BD8B
:1001D000DA05801A012340001B06C01880185A4215
:1001E0008018CA0F1043490007E04908C2071143AD
:1001F000DA05801A80194008801800F06CF9F8BD03
:1002000061000122511A001BF7E70122D207514079
:10021000AAE70122D2075040A6E7024670B54A403D
:10022000D30FDB0740002DD04A002AD0010E140E58
:10023000000212020919400A520A8418E501044614
:100240005443000A120A2E045043A4194219200CE8
:10025000C543AA18120C0125AD03521C52191204F1
:100260007F39240400D0521C104301D44000491EA1
:10027000C2B20C06C0092018401C4008802A02D0D7
:1002800003E0002070BD40084000002900DA002093
:10029000184370BD70B502464A40D50F40004A0071
:1002A000ED0740085208002814D0002A12D0C40DCF
:1002B000D30D41020120C0055202490A520AE41A34
:1002C000091812187D34914201D3641C00E04900E2
:1002D000002C01DA002070BD0023914201D3891A5D
:1002E0000343400849000028F7D100290AD0914271
:1002F00002D10121C90705E0914201D2012101E0AB
:100300000121C943E005C018401900F0E4F870BDB0
:10031000420005D04200120E52428A4201DB002008
:100320007047C90508187047F0B51FB488B00B991D
:100330000998002448400999C00F490049080991CB
:10034000C0070B990090490049080B91099908983A
:10035000A64608431CD00B990A98084318D0099860
:1003600001244000420D4800410D09982405000376
:10037000000B204309900B980003000B20430B90C7
:1003800050181C494018002201901446104605E000
:10039000002001460DB0F0BD032801DA034600E05D
:1003A00003239C46C11A0AAE0AE05F0008ADED5B6C
:1003B0004F00F75B7D430027AA187C41491C5B1E58
:1003C0006145F2DD410004AB5A522104120C0A438C
:1003D000240C401C0828DFDB01980290009970462D
:1003E00001910090059B049A0799069800F0C1F8C6
:1003F000D0E700000DFCFFFFC217C10F504010B541
:100400004018CA079623002100F06DF810BD10B502
:1004100000229623114600F066F810BDC20F41007D
:1004200040020123400ADB05D207090EC0187F29CC
:1004300001DA00207047962903DC9623591AC84038
:1004400001E096398840002AF4D0404270474100CC
:1004500040020122400AD205090E80187F2901DAE4
:1004600000207047962903DC9622511AC840704735
:10047000963988407047C20FD207400040080BD021
:10048000C10D0723DB01C91840020905400A1143C9
:10049000C208400711437047002001467047CB0F48
:1004A000DB07490010B5490802460A4307D00A0D88
:1004B00007240903E401090B121B002A01DC0020B8
:1004C00010BDC900440F0C43C100E018D2058018CC
:1004D00000F001F810BD002904DA401C490001D1E8
:1004E00040084000704770B40024050C05D110246A
:1004F000000402D1002921D01124050E01D10002EF
:100500000834050F01D10001241D850F01D18000A1
:10051000A41C002801DB4000641C002908D0202511
:100520002E1B0D46F540A14000D001212943084370
:1005300001061B1B000ADB1D02D5002070BC7047A2
:10054000DB05181880180029F8DA401C4900F5D19D
:1005500070BC40084000704710B5002B08DA00243A
:10056000401C614192185B411A4301D14008400090
:1005700010BDF0B51FB482B005460C0003D008468C
:1005800004F01CFD02E004F019FD2030024600904A
:100590002146284600F092F9049B059A04460F462E
:1005A00018431143084314D0184610431BD0009839
:1005B00040210A1A1846059900F090F905460E46A2
:1005C000009A0599049800F079F9084305D00120B4
:1005D00004E02046394607B0F0BD0020C1170543AE
:1005E0000E432C43374300990E986305401A790552
:1005F000E40A00220C43FD0A0A3002D5002001461D
:10060000E9E70105101969410C9C0D9D001969412C
:10061000FFF7A2FFDFE70000F0B5074608465840A5
:1006200087B0C00F049048000E46590040084908A2
:10063000BC1A884105D2384631461E4617460B463D
:1006400002465800400810434CD0300D039040053E
:100650005900400D490D0590401A0290402872DA69
:1006600018030121000B090508430190049800922A
:10067000002805D001995242002088410092019043
:10068000029840210A1A0199009800F017F90546CE
:100690000C466B4607CB00F032F9C0197141039A42
:1006A0000E0D0023D71756401A467A40164344D001
:1006B000049A002A2DD0029A012A039A15DC120509
:1006C000C01A914101263605001C7141D20F059ECA
:1006D000D2070093019202962A462346FFF749FF6C
:1006E00007B0F0BD38463146FAE71605224A0F46F4
:1006F000B218C01AB74101210905001C4F4100186A
:100700007F41114618187941E20F10436D19644179
:1007100013E0E2076D0815436408C2071443039A07
:1007200001261205C01A91413605001C7141CE0701
:10073000400830434908C01851412A462346FFF774
:100740000BFFCDE7FFE7049801224000C117121A02
:1007500000238B4104983146C417381AA141EEE7B3
:1007600030B40124E407634030BC55E730B40124C1
:10077000E407614030BC4FE70000E0FFF0B50C46F5
:100780005C4085B0E40FE40703944C000026640845
:1007900059009446490802460296224321D06246F7
:1007A0000A431ED06200570D4A000E032303550D65
:1007B000012402462C492405781B1B0B360B4018DC
:1007C00023432643614600901C46501AB44103D38C
:1007D0000098401C009002E0921800985B410028AD
:1007E00003DA0020014605B0F0BD00200121090513
:1007F0000746864611E064461D46141BB54106D3E4
:100800006546521BB341744607430C43A646CD07C9
:1008100040084908284392185B4105460D43EAD138
:100820001046184313D060461946504071400843A3
:1008300006D06046101AB34106D20122002306E01A
:1008400000220123DB0702E00122D243531000986B
:1008500074460105381C6141029C039D00196941E1
:10086000FFF77AFEBFE70000FD03000070B54B0004
:100870005B0803430BD04B005C0D002633466542FA
:10088000B341D417AD1AA34102DB0020014670BD6D
:1008900012053018514170BD064C0125064E05E089
:1008A000E36807CC2B430C3C98471034B442F7D391
:1008B000FFF70AFCB0590008D059000810B5202AEB
:1008C00004DB0146203A9140002010BD91402023D6
:1008D0009C1A0346E3401943904010BD10B5202AEE
:1008E00004DB0846203AD040002110BD0B46D3401F
:1008F000D0402024A21A91400843194610BD10B5DB
:10090000202A06DBCB170846203A1041C1170B43BB
:1009100006E00B461341D0402024A21A9140084320
:10092000194610BDFEB500231A461B1A8A4103DB87
:100930000020014603B0F0BD4A000D0301212D0B3C
:100940000905520D0D43D10702D100186D41521E09
:100950005110FF31FF310131002704463E46384631
:10096000009701910246012100200905FFF7B6FF1B
:10097000C3197141F818324684468E464A41614691
:100980002846611A904104D36046241A9541764660
:100990001F46241900986D41401C00903428E1DD69
:1009A000F91930467041091BA84103D20022D243F5
:1009B000134601E00022134601980105381C7141DD
:1009C000FFF7CAFDB6E70000F8B50546002000278E
:1009D000285ECF5F0C46C01BFFF70EFD1B4909695F
:1009E0000091FFF71AFC06463846FFF705FD314631
:1009F000FFF7BAFBFFF712FD208002200227285ED6
:100A0000E75FC01BFFF7F8FC0099FFF706FC0646FE
:100A10003846FFF7F1FC3146FFF7A6FBFFF7FEFC77
:100A2000608004200426285EA65F801BFFF7E4FC9C
:100A30000099FFF7F2FB05463046FFF7DDFC29463B
:100A4000FFF792FBFFF7EAFCA080F8BD94000020BE
:100A5000F8B5524C0021E078401DC2B2032003E0FB
:100A6000235C5940401CC0B29042F9D3A05C88423C
:100A70007ED1207824287BD160784D2878D1A07849
:100A80003C2875D1207969282ED1444A9079537930
:100A9000010243481943C18011460B7ACD791B02EC
:100AA0002B438380937A557A1B022B4343800B7B25
:100AB000CD7A1B022B430380937B557B1B022B4378
:100AC00003810B7CCD7B1B022B434381937C557CA4
:100AD0001A022A4382810A7DCB7C11021943C1810B
:100AE00003F018FD03F09EFC2079CA2846D16079F6
:100AF000FFF78DFC2B49FFF7CDFB2B4D06462860F9
:100B0000A079FFF784FC2949FFF7C4FB074668601A
:100B1000E079FFF77CFC2649A8608860C0C1207A94
:100B2000FFF775FC1F49FFF7B5FB224D064628600D
:100B3000607AFFF76CFC1D49FFF7ACFB0746686065
:100B4000A07AFFF764FC1C49A8608860C0C1E07A05
:100B5000FFF75DFC1349FFF79DFB184D2860207BD4
:100B6000FFF755FC1149FFF795FB6860607B00E0DB
:100B700013E0FFF74CFCA86000F052FB2079CD2871
:100B800001D100F00FFB2079CE2801D100F010FB3D
:100B90002079D02801D103F0C9FAF8BDC0010020A6
:100BA00010010020000020414001002000007A4494
:100BB0002C01002068010020540100207C0100204D
:100BC00070B51F4C6088401C80B26080012803D142
:100BD000FFF73EFF03F0E4FC60887D21C9008842F6
:100BE00003D30120174960800870174D6888FFF70C
:100BF0000EFC04462888FFF70AFC0121FFF788FB5A
:100C00002146FFF747FB1149FFF707FB1049FFF7A4
:100C100004FBFFF703FC0F4900B20880FF214B31B2
:100C2000884209DD0C48807B800702D502F0E4FE93
:100C300070BD02F0C5FE70BD022002F0FBFE70BD6B
:100C4000C60000208E000020CC0000209A99993F19
:100C50000000C842D00000201001002010B501465D
:100C6000024B0422024802F0C7FB10BDFFFF000048
:100C700020030020F3B50C46C888614983B04218B0
:100C80006048132A00D2E080A2885118132900D2AC
:100C9000A0802289BB21C900521A092A00D22081D2
:100CA0006289511A092900D26081554E6089093E36
:100CB0008019FFF7A1FB544F3946FFF7EBFA0546C1
:100CC000E0888019FFF798FB5049FFF7E3FA039992
:100CD0004968FFF79EFA2946FFF746FA4C49054650
:100CE0004860009020898019FFF786FB3946FFF79E
:100CF000D1FA0746A0888019FFF77EFB4349FFF72A
:100D0000C9FA03998968FFF784FA3946FFF77DFA33
:100D10003F490746886028463E4E3F4DB04204DDBD
:100D20003146E868FFF720FAE8603C4900988842BD
:100D3000E86800D900E00099FFF716FA0146E8607C
:100D40003748814200DD02E03648814200D9E86040
:100D50003146354E8F4203DDF068FFF705FAF0604B
:100D60002E49F0688F4200D83946FFF7FDF9014659
:100D7000F0602B48814202DC2A48814200D9F060B1
:100D800020884B210901884202D20020E860F060EF
:100D90001F4C00980C346168FFF737FAA968FFF719
:100DA0003CFA0290E9686868FFF737FA0190286812
:100DB0000099FFF732FA0199FFF7D6F90299FFF788
:100DC000D3F928613846A168FFF71FFAB168FFF729
:100DD00024FA0546F1687068FFF71FFA019039465A
:100DE0003068FFF71AFA0199FFF7BEF92946FFF7B5
:100DF000BBF930610098A760606005B0F0BD0000ED
:100E00002DFAFFFFDC0500000000C8420000504141
:100E1000900100200000204140010020000020C17E
:100E200000007A4400007AC42C010020F7B5074680
:100E30000C464888A94988B04018C72801D2A8485C
:100E40006080A089BB21C900401A092801D2081D71
:100E5000A081A4497868FFF7E0F90146A248012281
:100E60000069D2075040FFF7D0F9A04D06466860F0
:100E70009C493868FFF7D1F99D490969FFF7C9F91D
:100E8000A8600546A07BC1079A48A1890ED0081822
:100E9000FFF7B2FA9849FFF7FDF900909749B86853
:100EA000FFF7BBF90099FFF7B0F91AE00818FFF750
:100EB000A3FA9349FFF7EEF900908A49B868FFF763
:100EC000ACF9074661888648401AFFF795FA002179
:100ED000C943FFF71DFA3946FFF797F90099FFF765
:100EE00043F98249874F08608548864204DD84497A
:100EF000F868FFF739F9F86083488642F86801D945
:100F0000814900E03146FFF72FF9F8607D48C2685B
:100F10007E48824201DD7B4903E07D487949824277
:100F200000D9C86076497B4F8D4203DDF868FFF732
:100F30001BF9F8607449F8688D4200D82946FFF71C
:100F400013F9F8607348C2687048824201DD714944
:100F500003E06F486F49824200D9C86063486E4F12
:100F600001680491F868FFF7FFF86849F860884263
:100F700002DD3846C16004E06549674A884200D90D
:100F8000D16021884B200001814202D262480021B9
:100F9000C160564F30460C377968FFF736F959492A
:100FA0008968FFF73AF900905648C1684068FFF732
:100FB00034F90590534831460068FFF72EF905993A
:100FC000FFF7D2F80099FFF7CFF84E49086101907A
:100FD0002846B968FFF719F94E498968FFF71DF9E6
:100FE00006904C48C1684068FFF717F907904948D8
:100FF00029460068FFF711F90799FFF7B5F8069938
:10100000FFF7B2F843490861059039680498FFF783
:10101000FCF841498968FFF700F906903E48C1682D
:101020004068FFF7FAF800903B4804990068FFF722
:10103000F4F80099FFF798F80699FFF795F8364904
:10104000086100907E60BD600498386020884B2164
:101050000901884202D90A9900290AD0002635469A
:101060003446334622462946304603F033F80BB067
:10107000F0BD2A494018FFF7BFF904460599FFF76C
:1010800073F805460199FFF76FF80099FFF7BDF86F
:10109000FFF7C4F906B228460199FFF7B6F80099A0
:1010A000FFF762F8FFF7BAF905B220460599FFF796
:1010B000ACF807460199FFF757F80099FFF754F885
:1010C000FFF7ACF904B238460199FFF79EF8009992
:1010D000FFF79BF8FFF7A2F903B2C3E787FAFFFF18
:1010E000DC050000E12E654240010020A80100203F
:1010F0002C01002024FAFFFF0000C842E12E65C247
:101100000000484268010020000048C200409C45A1
:1011100000409CC5540100207C010020E6FBFFFF3D
:1011200010B5024800F038FF10BD00004402002056
:1011300010B50446007814210838FEF7D9FF216C59
:10114000064A890889008918616404498031A164CC
:101150001C21084001218140E16410BD00080240CB
:101160000179074B8A00D2180265054A4432491EAC
:1011700042658A07920F0121914081657047000006
:10118000FC0802400022064B06E00021491C89B2FF
:101190009942FBD3521C92B28242F6D370470000B0
:1011A00034210000014901204870704718000020D8
:1011B00001490120087070471800002070B5012017
:1011C00080F31088094C25460C352188288800F0CA
:1011D00063F96188688800F05FF9A188A88800F049
:1011E0005BF9002080F3108870BD00004A000020E9
:1011F00070B5012080F31088084CA51D2188E8886F
:1012000000F04AF96188288900F046F9A1886889C8
:1012100000F042F9002080F3108870BD50000020DB
:10122000F8B5012080F31088334D34492868FEF763
:10123000F4FFFFF7F3F8324C86B226803149686834
:10124000FEF7EBFFFFF7EAF86080A868FFF7E6F823
:101250002546A0801235A889314600F01DF9E8899D
:10126000618800F019F9288AA18800F015F9224E4A
:10127000224928363068FEF7D0FFFFF7CFF887B253
:10128000278020497068FEF7C8FFFFF7C7F8608025
:10129000B068FFF7C3F8A080688A394600F0FCF810
:1012A000A88A618800F0F8F8E88AA18800F0F4F8CC
:1012B000143612493068FEF7B0FFFFF7AFF887B277
:1012C000278010497068FEF7A8FFFFF7A7F8608035
:1012D000B068FFF7A3F8A080288B394600F0DCF84F
:1012E000688B618800F0D8F8A88BA18800F0D4F84A
:1012F000002080F31088F8BD40010020000020414C
:101300004400002000007A440E490A880E490988EA
:1013100000280DD0012813D10C48002902D0002A42
:1013200003D009E082420BD008E0814206D007E0FA
:10133000002A05D0002901D0AB207047012070475A
:10134000002070470000010800080108EEEE0000D0
:10135000F3B5002681B00F46224C3046FFF7D4FF8C
:101360002149012803D0002804D0AB20FEBD25462A
:101370000C4600E00D461D4A00232946012000F0DE
:10138000F7FE0028F2D102F0F5FA3946019800F094
:1013900055F80028EAD116497700C85B019A9042B7
:1013A0000CD0144900F028F8012807D01048114942
:1013B000C05B098800F042F80028D7D1761CB6B28D
:1013C000102EE8D30B480C3001460839446000F079
:1013D0008FFE0028CAD1002213462946012000F0C2
:1013E000C7FEFEBD0000010800080108EEEE000087
:1013F0005600002000000020F8B506460D460124E6
:101400000C4F0020FFF780FFAB2812D00A49C00222
:10141000C0198A68801C921E08E01188B14204D16C
:10142000403AD08F2880002402E0121F8242F4D874
:101430002046F8BD000001080000002070B50646F7
:101440000D460120FFF760FFAB280DD01049C00208
:10145000104C4118A06804E00268521C05D0001D21
:10146000A0608842F8D3802070BD01462A46002340
:10147000012000F07DFE0028F6D1A168324600234D
:101480000120891C00F074FEA168091DA16070BDD7
:10149000FE0701080000002070B50C460546FFF766
:1014A000CDFF802803D121462846FFF751FF70BDAC
:1014B0007047000002484169024A11434161704788
:1014C0000020024004000100054A5169FF23F9335E
:1014D0009943C00008430349084350617047000026
:1014E000002002400200010030B505494C69012589
:1014F0002C434C610260BFF36F8F436030BD00002E
:101500000020024030B50B4C002362690125AD0478
:101510002A436261EFF3108272B620C95B1C20C0BF
:10152000DBB2402BF9D32069C003FCD482F31088CE
:1015300030BD00000020024070B5054600F0E8FE16
:101540004619174C03E000F0E3FEB0421FD22069B9
:10155000C043C003F7D5216912480140401C2061F7
:10156000A26901208007024003D0A0691043A06156
:101570001143002903D00C484160012070BD00F0E8
:10158000C7FE451905E000F0C3FEA84201D30320C1
:1015900070BD2069C0434003F5D5002070BD000038
:1015A00000200240FA830000AC03002010B50B4875
:1015B00081684A000A4952088A4204DC40684000B7
:1015C0004008884208DD00231A461946184602F0F2
:1015D00081FD04490120087010BD00002001002099
:1015E0000000A0428E00002010B502460020D378F3
:1015F00001469B1C04E05418E4786040491CC9B2C1
:101600009942F8D310BD0000F0B5304C85B0E168C8
:10161000074608460391FEF700FE0490A168029178
:101620000846FEF7FAFD6168064608460191FEF796
:10163000F4FD2168054608460091FEF7EEFD2946B7
:10164000FEF7E3FD3146FEF7E0FD0499FEF78CFD61
:10165000FEF711FF05460E4603990298FEF7DDFDE1
:10166000029001990098FEF7D8FD0299FEF77CFDE3
:101670000121FEF74DFEFEF7FEFE2A46334603F03B
:10168000BDFF012676073246114BFEF74DFEFEF7F1
:1016900006FFB860E1686068FEF7BFFD0546A16817
:1016A0002068FEF7BAFD2946FEF7AFFD0121FEF7DF
:1016B0002FFEFEF7E0FE03F059FD3246054BFEF724
:1016C00033FEFEF7ECFE786005B0F0BDA800002008
:1016D000DCA54CC0DCA54C4070B5054600200C468E
:1016E000285EFEF789FE0B4E3146FEF796FD206020
:1016F0000220285EFEF780FE3146FEF78EFD606018
:101700000420285EFEF778FE3146FEF786FDA060D5
:1017100070BD000089A18B3AF0B51C4E1B4F367886
:101720008C46B64601887600BF1CB95341883F1DE0
:101730000024B9538088391D885323462246254604
:101740003E1F6800315E6D1C0C19395EEDB2CB187E
:101750000E490A31085E8218022DF2D3E00F0019FB
:10176000401061460880D80FC01840104880D00F44
:101770008018401088807146491C0448C9B2017025
:10178000022901D100210170F0BD00009400002069
:10179000F8B5064604464036307D0D46012807D090
:1017A00001273775206802F071F9002802D029E07E
:1017B0000220F8BD01229449D205286853108842BE
:1017C00032D16868801A0DD0984208D17F22A8686B
:1017D000D2049043032292058218206804E000227C
:1017E000206801E0894A206802F054F9A06D0121C7
:1017F00009048843A06580212068EBE00A4300E0EB
:101800008A43426080482A688242286970D12368EE
:10181000D968DB68C906890F490088406969DB0619
:101820009B0F5B009940DEE06968891A70D099428D
:101830000BD17749884221685BD180310A6AA86858
:10184000430305D0C3074ED105E000222368ABE077
:101850004000C00E48E0830701D5012044E0430763
:1018600001D5022040E0030701D503203CE0C30678
:1018700001D5042038E0830601D5052034E0430675
:1018800001D5062030E0030601D507202CE0C30572
:1018900001D5082028E0830501D5092024E043056F
:1018A00001D50A2020E0030501D50B201CE0C3046C
:1018B00001D50C2018E0830401D50D2014E0430469
:1018C00001D50E2010E0030401D50F200CE0C30366
:1018D00001D5102008E0830301D5112004E0400366
:1018E00001D5122000E0002087403A430A625FE001
:1018F00078E080314A6AA868430302D0C3074CD11C
:1019000002E04000C00E49E0830702D5012045E017
:1019100048E0430701D5022040E0030701D503203A
:101920003CE0C30601D5042038E0830601D505203C
:1019300034E0430601D5062030E0030601D5072038
:101940002CE0C30501D5082028E0830501D5092036
:1019500024E0430501D50A2020E0030501D50B2032
:101960001CE0C30401D50C2018E0830401D50D2030
:1019700014E0430401D50E2010E0030401D50F202C
:101980000CE0C30301D5102008E0830301D511202A
:1019900004E0400301D5122000E0002087403A43D4
:1019A0004A6205E0194A23680146184602F072F8B7
:1019B000174829688142A06D06D101214904884356
:1019C000A0654912206805E0012189048843A065CB
:1019D000206849120160287B01282068426800D0F5
:1019E0000EE70BE7696992022368940FD20FA218E1
:1019F0009200D218136A074C0004234008430343A3
:101A0000136200203075F8BD0000C07CFFFF870026
:101A1000FFFF170000F000F0F8B500270646044667
:101A200040360097307D0D4601280FD001203075DB
:101A3000206802F02BF800280AD0A06D202108436E
:101A4000A0650127002030753846F8BD0220F8BD9A
:101A5000686802287ED001222169D207914202D013
:101A6000121D914206D120682968826A4903490BF8
:101A70000A436EE0C206D20E0F20216E90408143D1
:101A80002868430302D0C3074BD102E04000C00ED8
:101A900048E0830701D5012044E0430701D5022037
:101AA00040E0030701D503203CE0C30601D5042034
:101AB00038E0830601D5052034E0430601D5062031
:101AC00030E0030601D507202CE0C30501D508202E
:101AD00028E0830501D5092024E0430501D50A202B
:101AE00020E0030501D50B201CE0C30401D50C2028
:101AF00018E0830401D50D2014E0430401D50E2025
:101B000010E0030401D50F200CE0C30301D5102021
:101B100008E0830301D5112004E0400301D5122021
:101B200000E000209040014321666968E26988086E
:101B3000401C904210D820682B68826A9C46C906D7
:101B4000C90E0F238B409A4363469B001B0F8B40AB
:101B50001A4300E038E082622168AB6828684A696D
:101B60000002824318404001400902434A6128684C
:101B7000002800DB66E7294A116807239B05194006
:101B8000274B984211D10B020FD4C00201431046DB
:101B900001F098FF244823490068FEF7A9FA00E005
:101BA000401E00900028FBD14CE7204B984203D107
:101BB000CB0101D4800205E01D4B9842DAD14802E6
:101BC000D8D45802014325E001212069C907884281
:101BD00002D0091D884206D120682968826A49031B
:101BE000490B8A43826228680028C3DA0B4A1168CD
:101BF00007239B0519400A4B984201D1C00208E017
:101C00000A4B984201D1800203E0094B9842B1D1BE
:101C100040028143104601F055FF13E708270140B9
:101C2000001000B0400D0300E0000020004000B8AC
:101C3000002000B4F0B5002685B004460296019657
:101C40000096002803D0A06D002803D009E00120F1
:101C500005B0F0BD204600F015F90020E0655421E4
:101C6000085520688168C900C90F11D181687D4A73
:101C7000114001221207114381607C487A490068B3
:101C8000FEF736FA400000E0401E00900028FBD12D
:101C9000206881680127C900C90F002907D1A16DFB
:101CA00010221143A165E16D3943E165012601F080
:101CB000EDFEA16DC90601D4002804D0A06D10214D
:101CC0000843A065CAE0A06DFF21013188430221CD
:101CD0000843A065206801F0D5FE002822D12168C4
:101CE000C86818229043A2681043C8602068016940
:101CF000626889008908920F9207114301610321EC
:101D00006068890788420DD0494288420AD049005C
:101D1000884207D056498A680F239B049A4318408B
:101D200002438A60207EA27E8503607EC003054355
:101D300050030543206B002801D001200003054318
:101D4000E06805432069002802DA4000400801E00D
:101D500001204005214605432031087B4000054312
:101D6000029805430878012808D1002A1DD0A06DEB
:101D700020221043A065E06D3843E065606A0028CA
:101D800006D0FF23C1331840A26A284302431546F8
:101D9000626C206CE36C1043A26C097F1A43104301
:101DA000019A1043012904D004E0012000040543F6
:101DB000E4E738432168CA682E4B1A402A43CA60B8
:101DC00021680A692C4B1A4002430A610021626BA8
:101DD000206801F07EFE2949A26B206801F079FE9F
:101DE000206900282AD001214905884218D1216E96
:101DF000002082000B46D340DA43120702D0401C79
:101E00000828F6D3012819D02068826A227F920020
:101E1000121FD3060F22DB0ED2439A400A4382627E
:101E20002068C06816490840A8420ED10020E0652D
:101E3000A06D80088000401CA06510E02068816AC9
:101E40000F22D24311438162EAE7A06D0221884349
:101E500010210843A065E06D3843E0650126304657
:101E6000F6E60000E8FFFF7F400D0300E0000020E1
:101E7000002701401902FEFF02FCFFDF04FFFF07FD
:101E8000E7FF3F83F0B587B0054614216846FEF7AB
:101E900060F91D492868884234D11C480268012134
:101EA00009050A4302600068084005901748403859
:101EB000416B012211434163406B20261040009684
:101EC000059003200190002705206946029700072E
:101ED00000F07EF90F4C0E482060A7600520E760F7
:101EE0006060802020614000606127628000E661C0
:101EF000A061204600F0ACF8002801D0FFF7D8FA26
:101F00002C65A56207B0F0BD0024014040100240DE
:101F10000800024044020020F8B5014600242031A8
:101F200001220A714B79022B03D00421C1630124E1
:101F30002DE003681D680E26B5431D6003681D680B
:101F40006D086D001D60436C1D68FF260136B543AA
:101F50001D60104B5D68066C1C273E401746B7405D
:101F60003D435D60836CC56C5D60036D002B07D0E5
:101F70001E68FF250135AE431E60436D856D5D60B3
:101F80004A7100220A71816B002900D088472046DF
:101F9000F8BD000000000240F0B42C490C68026853
:101FA0001368056C1C273D400426AE40264211D024
:101FB0005E070FD513689B0603D4146804239C4363
:101FC00014604B68046C04223C40A24013434B60F5
:101FD000016B1CE00227AF40064627402036002F49
:101FE00019D09F0717D513689B0605D413680A24D8
:101FF000A3431360012272714B68046C1C221440CD
:102000000222A24013434B6000213171C16A0029B2
:102010001AD0F0BC08470827AF40274214D01B074E
:1020200012D513680E24A34313604B68046C1C2262
:10203000144001221546A5402B434B60C2637271C8
:1020400000213171416BE2E7F0BC704700000240B3
:1020500070B504003DD02448256814212818FEF7E7
:1020600047F88000206402202646203670712868D8
:102070001E4908402860E168A06862690843216938
:1020800011430843A1690843E1690843216A0843F1
:1020900021680A68104308602046FFF749F80121CB
:1020A000A06889030025884200D16560616C2079B1
:1020B0000860A06CE16C41606068401E03280AD88B
:1020C0002046FFF74DF8206D0560606DA16D416001
:1020D00004E0012070BD25656565A565E563012007
:1020E00070713571002070BDF8FFFDBF0F80FFFFDC
:1020F000F8B51D4D064628780F4601280AD0012064
:102100002870002068607D20C000FFF715FA0028C5
:1021100002D026E00220F8BD3168042904D0002155
:10212000C9433960746812E0FFF7C4F97D20C0002C
:10213000FFF702FA15E02046FFF7C6F97D20C00040
:10214000FFF7FAF9002801D03C6005E0641CB26892
:1021500071688918A142EED804494A6902239A435A
:102160004A6100212970F8BDAC0300200020024024
:10217000F0B51FB4144C06462078154601280AD045
:102180000120207000277D20C0006760FFF7D4F990
:10219000002803D010E0022005B0F0BD012E0DD0C4
:1021A00029460198FFF7AEF97D20C000FFF7C4F97A
:1021B00006494A69B2434A612770EDE72A46039B04
:1021C0000198FFF791F9EFE7AC03002000200240EF
:1021D000F0B5002388E001229A4094461440220082
:1021E0007ED04C68022C01D0122C0CD1DC08A4004B
:1021F00027183C6A5D07ED0E0F26AE40B4430E690A
:10220000AE4026433E6205685E000324B4400F7969
:10221000A543BF07BF0FB7402F4307604D68012D8F
:1022200005D0022D03D0112D01D0122D0ED18568BD
:10223000CF68A543B7402F43876047686546AF43E3
:102240000D79ED06ED0F9D403D434560C568A54302
:102250008C68B4402C43C4604C68E40043D59D08AE
:10226000244CAD002F193C6E9D07EE0E0F25B54096
:10227000AC4305252D07A84201D100250FE01E4DD6
:10228000A84201D101250AE01C4DA84201D1022536
:1022900005E01B4DA84201D1032500E00525B5400E
:1022A0002543144C3D66134D80352E684F68964388
:1022B000FF0300D516432E606E684F689643BF0338
:1022C00000D516436E6025684E689543F60200D52A
:1022D0001543256065684E689543B60202D500E057
:1022E00001E0154365605B1C0A681446DA4000D0C3
:1022F00071E7F0BD001802400004005000080050D3
:10230000000C0050002A01D0816170478162704743
:102310000148806870470000E400002010B50848BC
:1023200000240168821511430160204600F00AF87C
:10233000002801D0012401E000F028F8204610BD5B
:102340000020024070B50F4E002471680546002938
:1023500015D07D20C000FDF7CBFE01460A4800687D
:10236000FDF7C6FE00F0FAFB002808D1042D06D2C6
:1023700000222946401E00F02BF8356000E00124C1
:10238000204670BDE4000020E000002008B50948A8
:102390000168012211430160006810400090054867
:1023A0004038C26B01040A43C263C06B084000900E
:1023B00008BD000040100240002805DBC106C90E20
:1023C00001208840014908607047000000E100E0FA
:1023D00010B502F021FE10BD10B50F4C216803228C
:1023E0005202914301432160C11FFF39FA390ED1D6
:1023F0000A480621006848430949FDF779FE401C58
:1024000002E0002805D0401E61694905F9D400208A
:1024100010BD032010BD000000700040E00000204F
:1024200040420F00F8B50446006800264D4D800379
:1024300058D54C4800274038C06BC00009D44948E3
:102440004038C26B01040A43C263C06B08400127D5
:10245000009045480168821511430160FFF758FF5D
:10246000009005E0FFF754FF0099401A022825D894
:102470003D480068C005F5D5E86903210902084018
:102480000FD0616981420CD0E86903210902EA6931
:102490008843012109040A43EA61EA698A43EA613F
:1024A000E861C0070FD0FFF733FF009008E0FFF7A7
:1024B0002FFF0099411A2D48814201D9032609E0D6
:1024C000E8698007F3D5E869032109028843616957
:1024D0000843E861002F05D022484038C26B010450
:1024E0008A43C2632078C00705D0686961688008A4
:1024F0008000084368612078400606D5686903219A
:1025000009038843A168084368612088400411D505
:102510006869216980008008084368610121206999
:102520008907884206D10F484038C1680122120449
:102530001143C1602088000512D568690321890311
:102540008843E168084368610121E06889038842A3
:1025500006D104484038C168012212041143C16009
:102560003046F8BD40100240007000408813000063
:10257000F8B50F46060043D04D4D28684007400F80
:10258000B84213D22868C008C00038432860FFF75B
:10259000BFFE044605E0FFF7BBFE011B4548814234
:1025A00061D828684007400FB842F4D13068424CE7
:1025B00081070DD5400704D5A0680721090308430A
:1025C000A060A0680F2109028843B1680843A06099
:1025D0003078C00732D0706801280AD002280BD0AA
:1025E00000280FD03449403103280ED0C96989072B
:1025F00004E02168890301E021688901002906DBE4
:102600000120F8BD21684905F8E7096AEFE7A168EC
:10261000C908C9000143A160FFF77AFE009006E0F7
:10262000FFF776FE0099411A224881421BD8A06824
:10263000382108407168C9008842F1D128684007F4
:10264000400FB84217D91A480168C908C900394370
:102650000160FFF75DFE054607E0FFF759FE411BED
:102660001448814201D90320F8BD11480068400791
:10267000400FB842F1D13078400706D5A068072155
:1026800009038843F1680843A06000F031F8A168AD
:102690003C2289091140094A515CC906C90EC8404B
:1026A0000749086007480068FFF74CFEF8BD0000C6
:1026B0000020024088130000001002405C5800080F
:1026C000E0000020E400002006480749006889680F
:1026D000064A4904490F8900515CC906C90EC84021
:1026E00070470000E0000020001002409C580008E5
:1026F00010B5204CA068204A8006400F16D0A06874
:102700008006410F501001290FD0A1688906490F9A
:10271000022912D0A0688006400F042823D0A068A8
:102720008006400F032821D0002010BD2068012121
:102730008004400F8140104612E0E1688B07E16899
:102740009B0F4906490F491C032B00D01046FDF78B
:10275000CFFCE1684904490E4843E168490F491C30
:10276000FDF7C6FC10BD0120C00310BD7D20000296
:1027700010BD0000001002400024F400F8B5040071
:102780007ED020783827C007EB4D002846D0A868B7
:10279000E96838408907890F102802D008280BD033
:1027A00001E0032908D001206268000482420AD1B6
:1027B00029680143296015E0286880032ED56068E8
:1027C0000028DDD02AE0052301211B0489049A4258
:1027D0002A6802D10A432A60EAE782432A6028680D
:1027E00088432860606800280CD0FFF791FD0646FA
:1027F00004E0FFF78DFD801B642873D828688003F0
:10280000F7D50BE0FFF784FD064604E0FFF780FDF7
:10281000801B6428F1D828688003F7D420788007CB
:1028200069D5A868E96838408A070721920FC9026C
:10283000102802D0002813D001E0022A10D0E0684E
:10284000002846D028688843216908432860286802
:10285000FF21013108432860FFF75AFD06462CE0AE
:102860002A68520502D5E268002A89D06A687F2367
:102870001B029A4363691B021A436A60002800E046
:102880008DE00ED1286888432169084328602868B4
:1028900001218004400F8140A848FDF729FCA84988
:1028A0000860A8480068FFF74DFD002877D122E0B6
:1028B000FFF72EFD801B02289FD828684005F7D51A
:1028C00068687F21090288436169090208436860DA
:1028D00011E02968FF20013081432960FFF718FDCE
:1028E000064605E098E0FFF713FD801B022884D818
:1028F00028684005F7D42078934E00072ED5A868A5
:102900008006400F03280AD0A0690028306A16D03C
:10291000012108433062FFF7FBFC07460BE0306AF9
:1029200080071BD5A06900289FD017E0FFF7F0FCB7
:10293000C01B022870D8306A8007F7D50EE0400827
:1029400040003062FFF7E4FC074604E0FFF7E0FCDC
:10295000C01B022860D8306A8007F7D4207840076F
:102960006CD5A86800278006400F042818D0E86BB3
:10297000C00008D4E96B012000070143E963E96B5B
:1029800001400127009171480168C90519D4016807
:10299000821511430160FFF7BBFC00900DE083E05E
:1029A000F06980074AD5A06800287DD046E0FFF78F
:1029B000AFFC0099401A02282ED864480068C00570
:1029C000F5D5A168012910D004200529F16911D09D
:1029D00049084900F161F1698143F161A06800286B
:1029E00016D0FFF795FC00900EE0F0690121084336
:1029F000F061F3E70143F161F7E7FFF789FC009924
:102A0000411A534881426DD8F0698007F5D50EE030
:102A1000FFF77EFC009007E064E0FFF779FC009987
:102A2000411A4B4881425DD8F0698007F5D4002FE8
:102A300004D0E96B012000078143E963E0690028C5
:102A400077D0A9688906490F022951D00126360698
:102A5000022828680DD0B0432860E868800880000C
:102A6000E860E8683B490840E860FFF751FC04462D
:102A70003AE0B0432860FFF74BFC074604E0FFF75D
:102A800047FCC01B02282DD828688001F7D4616A52
:102A9000206AA26A0843E16A120211430843216BCB
:102AA0000843E9682C4A00E041E011400843E8602F
:102AB000286830432860E868012109070843E86076
:102AC000FFF726FC044604E0FFF722FC001B022867
:102AD00008D828688001F7D52BE0FFF719FC001B08
:102AE000022801D90320F8BD28688001F5D420E030
:102AF0000128F8D0E868226A8107890F914216D12F
:102B00007021626A0140914211D17F21A26A0902BB
:102B10000140120291420AD11F214904E26A014098
:102B2000914204D1400F216B4007884201D001201F
:102B3000F8BD0020F8BD0000001002400024F400A1
:102B4000E0000020E400002040100240007000403F
:102B500088130000FFFFFEEF8C80C11F094910B5EC
:102B6000401E884201D9012010BD074C606103213D
:102B7000081F02F051FA0020A06107202061002008
:102B800010BD0000FFFFFF0000E000E0704770474D
:102B90007047000070B5034620331A7F012A4BD0DE
:102BA00001221A770325CA682D02AA438D6800689E
:102BB0002A430125AD02AA434D6800242A4301257A
:102BC000ED02AA430D682A4301252D03AA430D698E
:102BD0002A4301256D03AA434D692A430125AD030C
:102BE000AA430D6B2A430F252D04AA430D8B2D04F8
:102BF0002A43124DA84204D101263607B243CE69BA
:102C00003243A84214D10F252D05AA430D8D2D0561
:102C10002A4301252D06AA430D6A2A4301256D0684
:102C2000AA434D6AC96A2A4301256D07AA430A438C
:102C300042641C77002070BD022070BD002C014052
:102C4000F0B5034620331A7F012A1ED001271F77D3
:102C500002225A7704686268A5680D4EB44205D115
:102C600016460F22120596434A6832437026B24335
:102C70000E68896816438022954329436660006880
:102C800081605F7700201877F0BD0220F0BD000062
:102C9000002C014070B5040005D025462035687F22
:102CA000002802D006E0012070BD002028772046D1
:102CB00000F00AF802206877211D206801F0F8FC76
:102CC00001206877002070BD08B50068104988426F
:102CD00008D110480268C1140A4302600068084025
:102CE000009008BD0C498842FBD10A484038C26BAD
:102CF00002210A43C263C06B0022084000901146C3
:102D00001020FFF765FB1020FFF756FB08BD000001
:102D1000002C0140401002400004004070B5054600
:102D200004462035287F012817D001262E7702205F
:102D30006877226890682E4B1840FF231B02984347
:102D400090600A68502A32D00EDC202A4CD006DC73
:102D5000002A49D0102A3BD146E0022070BD302A1B
:102D600042D0402A34D137E0602A28D0702A12D0CD
:102D700001200003121A2BD0824229D1CB684A6865
:102D80008968206801F0D0FC2068816801229203E4
:102D9000114381601CE0CB684A688968206801F0B3
:102DA000C3FC2168886877221043886010E0CA68F5
:102DB0004968206801F01EFE5021206806E0CA68BC
:102DC0004968206801F027FE6021206801F0B8FC06
:102DD0006E770020287770BDCA684968206801F0C6
:102DE00009FE40212068F1E711462068EEE7000067
:102DF00088FFCEFF7047000070B504460068016987
:102E00000025C9438907002915DBC168C943890723
:102E100011D4E91E016101202077206880698007B4
:102E2000204602D0FFF7E6FF04E000F0DFF820467E
:102E300000F08BF9257720680169C943490717D449
:102E4000C168C943490713D40421C9430161022061
:102E50002077206880698005800F204602D0FFF728
:102E6000C9FF04E000F0C2F8204600F06EF92577B3
:102E700020680169C943090716D4C168C943090715
:102E800012D40821C9430161042020772068C06959
:102E90008007204602D0FFF7ADFF04E000F0A6F85F
:102EA000204600F052F9257720680169C943C90618
:102EB00017D4C168C943C90613D41021C94301619D
:102EC000082020772068C0698005800F204602D046
:102ED000FFF790FF04E000F089F8204600F035F994
:102EE000257720680169C943C90708D1C168C9436A
:102EF000C90704D1891E0161204600F027F9206826
:102F00000169C943090609D4C168C943090605D442
:102F10008021C94301612046FFF739FE206801691D
:102F2000C943C90508D4C168C943090604D4124974
:102F300001612046FFF72AFE20680169C94349065E
:102F400009D4C168C943490605D44021C943016178
:102F5000204600F01BF920680169C943890609D49D
:102F6000C168C943890605D42021C94301612046AF
:102F7000FFF70EFE70BD0000FFFEFFFF70B586B0CC
:102F8000044614216846FDF7E4F815492068884294
:102F900023D11448416B012631434163416B3140D9
:102FA0000591416B022421434163406B0025204081
:102FB000059009200002694631C1052069460007D5
:102FC00003950494FFF704F94820694631C1694626
:102FD000054804960395FFF7FBF806B070BD0000A6
:102FE000002C014000100240000400507047F8B56A
:102FF000064604462036307F0D4601280ED00120BB
:1030000030770220707708270C2A43D008DC002A8A
:103010000BD0042A19D0082A77D12BE00220F8BD62
:10302000102A4DD0142A70D15AE0206801F092FB8A
:103030002068816939438161206881690422914354
:103040008161206881692A6911E0206801F0C0FB74
:10305000206881690122D20211438161206881695F
:10306000521091438161206881692A6912021143DB
:1030700081614AE0206801F0E9FB2068C1693943B9
:10308000C1612068C16904229143C1612068C1699E
:103090002A6912E0206801F017FC2068C16901224A
:1030A000D2021143C1612068C269012189028A43A9
:1030B000C2612068C1692A6912021143C16124E01A
:1030C000206801F037FC2068416D39434165206874
:1030D000426D04218A4342652068416D2A6912E0ED
:1030E000206801F055FC2068416D0122D202114395
:1030F00041652068426D012189028A43426520684A
:10310000416D2A6912021143416501207077002048
:103110003077F8BD70B5040005D025462035687FAE
:10312000002802D006E0012070BD0020287720464C
:1031300000F00AF802206877211D206801F0B8FA33
:1031400001206877002070BD704770470C49006807
:103150000968884213D10B48007800280FD00A482C
:103160004168491C41600178491C01704178491C43
:1031700041708178491C8170C178491CC1707047C9
:10318000E0020020C4000020D400002070477047F7
:103190007047704770470000F8B503680446DA6965
:1031A0001868996816072546360F8035002E60D0BE
:1031B000584EFF2721370E400740374372D0D707BC
:1031C00006D0C70504D501271F62AB683B43AB603F
:1031D000930708D5CB0706D0276802233B62AB686C
:1031E00004273B43AB60530708D5CB0706D02768BD
:1031F00004233B62AB6802273B43AB60130709D54E
:1032000020230340334305D0266808233362AE6889
:103210001E43AE60AB68002B38D092060AD5202240
:103220001040D2051140084304D0E16E002901D0BE
:1032300020468847A86821688968490601D40007A4
:1032400029D5204601F0FAFC2068816849061ED580
:10325000826840218A438260A06F002817D02E49DF
:103260008163A06FFEF758FE00280FD0A06F816B1E
:103270000BE0960616D5012720263F0706400F4093
:103280003E430FD0E16E22E020468847F8BD20463D
:10329000FFF780FFF8BD2046FFF77CFF0020A86005
:1032A000F8BDFFE7D60208D54E0206D5012000057D
:1032B00018622046FFF76DFFF2E716060AD50127D0
:1032C0008026FF05064039400E4303D0216F0029B8
:1032D000DAD1E5E751060DD541060BD51A6820462F
:1032E00040218A431A60202129600021216700F0D3
:1032F000F3F8D5E7110205D5410003D52046FFF7C5
:1033000047FFCDE7D101CBD50028C9DA2046FFF72A
:103310003EFFC5E701000010294C000870B504000D
:1033200006D02046803005460068002802D007E01D
:10333000012070BD00217C200155204600F026F8B8
:10334000242028602068016849084900016020465F
:1033500001F088FC0128ECD0A06A002802D02046A9
:1033600001F0CAFB206841680922D2029143416002
:10337000206881682A2291438160206801680122C7
:1033800011430160204601F01DFC70BD10B586B0F0
:10339000044614216846FCF7DCFE15492068884283
:1033A00024D11448C26B012149040A43C263C26B91
:1033B0000A400592426B01210A434263406B04912B
:1033C000084005900C2000900220019000200290FF
:1033D0000390052069460007FEF7FAFE002201214E
:1033E0001C20FEF7F5FF1C20FEF7E6FF06B010BD1F
:1033F0000044004000100240FFB5074604468037F5
:10340000386885B00D46202864D1002D0CD007986F
:10341000002809D00120A1680003814207D120695A
:10342000002804D1E80702D0012009B0F0BD2046F1
:1034300060300290007F01284CD002980121017772
:103440000020B86021203860FEF762FF0190264618
:1034500040360798B0820798F0820120A1680003E7
:10346000814202D12069002802D00395002515E091
:103470000020039012E000228021204601F062FD2E
:10348000002818D10398002817D021680078886296
:103490000398401C0390F08A401EF082F08A019B42
:1034A000002808980090E6D100224021204601F033
:1034B00049FD002808D00320B7E728882168C00507
:1034C000C00D8862AD1CE6E720203860029900201C
:1034D0000877AAE70220A8E77047FEE7FF210A481D
:1034E000013181620422521EFDD1802282610322B9
:1034F000521EFDD181610322521EFDD18162032043
:10350000401EFDD1704700000004005010B5082196
:103510000020104B80229A6104224C01521EFDD1E2
:103520000EE00322521EFDD100BF9C610322521EF9
:10353000FDD140061A69000E120601D50122104382
:103540000A46491EC9B2002A9C62EAD10321491EDB
:10355000FDD110BD00040050FF230F4801338362EA
:103560000421491EFDD1802181610322521EFDD11B
:1035700083610322521EFDD1026981620322521E21
:10358000FDD10269120601D5002070478162032037
:10359000401EFDD10120704700040050FF230A485F
:1035A000013383620421491EFDD1802282620321FE
:1035B000491EFDD183610321491EFDD18261032093
:1035C000401EFDD17047000000040050FF210E484E
:1035D000013181620422521EFDD1802282610322C8
:1035E000521EFDD181610322521EFDD1026981620A
:1035F000120603D50320401EFDD170470320401E54
:10360000FDD10120704700000004005030B50822B1
:10361000802554010F4913E003235B1EFDD10306EF
:1036200004D58D6103235B1EFDD103E08D6203236E
:103630005B1EFDD14006000E8C6103235B1EFDD195
:103640001346521ED2B2002B8C62E5D10320401EDD
:10365000FDD130BD00040050FFB5C04C8DB02068D6
:1036600003906568A0680190E0681799009008468B
:10367000FCF7D3FD169907460846FCF7CEFD1099D6
:1036800006460846FCF7C9FD3146FCF76DFD394694
:10369000FCF76AFD02F06EF8064601461098FCF74A
:1036A000BCFD109031461698FCF7B7FD16903146D8
:1036B0001798FCF7B2FD1790A16805912068079054
:1036C000FCF7ABFD0990E16860680F460646FCF721
:1036D000A4FD0999FCF799FD0121FCF719FE0A9058
:1036E00039460598FCF799FD099031460798FCF793
:1036F00094FD0999FCF738FD0121FCF709FE3946D4
:1037000008900846FCF789FD059906900846FCF7E5
:1037100084FD074631460846FCF77FFD07990646BB
:103720000846FCF77AFD3146FCF76FFD3946FCF799
:103730006CFD0699FCF718FD064608991798FCF7EA
:103740006CFD074631461698FCF767FD3946FCF7D5
:103750005CFD099031461098FCF75FFD06460A991A
:103760001798FCF75AFD3146FCF74FFD0B900A996C
:103770001698FCF752FD064608991098FCF74DFD87
:103780003146FCF742FD074675490998FCF745FDAF
:103790002169FCF7E9FC0646206171490B98FCF7AA
:1037A0003CFD6169FCF7E0FC606106906C493846BD
:1037B000FCF733FDA169FCF7D7FCA06105900999DE
:1037C0000D98FCF7D1FC3146FCF7CEFC0D900B991F
:1037D0000E98FCF7C9FC0699FCF7C6FC0E9039461A
:1037E0000F98FCF7C1FC0599FCF7BEFC01460F9051
:1037F0000098FCF712FD07460E990198FCF70DFDA5
:10380000064601212846C90748400D99FCF705FDE9
:103810003146FCF7FAFC3946FCF7F7FC5149FCF756
:10382000FCFC0399FCF7A0FC206007900E9900981F
:10383000FCF7F3FC07460F990198FCF7EEFC0646EF
:1038400003990D98FCF7E9FC3146FCF78DFC3946ED
:10385000FCF7DBFC4349FCF7E0FC2946FCF784FC61
:103860006060074600990D98FCF7D7FC0490284645
:103870000F99FCF7D2FC06460E990398FCF7CDFC95
:103880003146FCF7C2FC0499FCF76EFC3549FCF7A5
:10389000C4FC0199FCF768FCA060064601990D98EC
:1038A000FCF7BBFC019028460E99FCF7B6FC0546D8
:1038B0000F990398FCF7B1FC2946FCF755FC0199D8
:1038C000FCF7A3FC2749FCF7A8FC0099FCF74CFC8B
:1038D0000146E060FCF7A1FC314602900846FCF787
:1038E0009CFC054639460846FCF797FC07990646B6
:1038F0000846FCF792FC3146FCF736FC2946FCF7FB
:1039000033FC0299FCF730FC01F034FF0546014618
:103910002068FCF782FC206029466068FCF77DFC8B
:1039200060602946A068FCF778FCA0602946E06842
:10393000FCF773FC0C49E0600420085EFCF75CFDBA
:103940000A49FCF76AFC0649FCF767FC084C216849
:10395000FCF70AFC206011B0F0BD0000A8000020B8
:103960006F12833A6F12033A88000020F1FF793D0D
:103970002001002010B50120FDF7C6FC0C4A0D49BE
:10398000AB2806D0C00282188A600B4A8218886869
:1039900008E00A488860AB2010BD03685B1C05D0B6
:1039A000001D88609042F8D3802010BD002010BD1B
:1039B0000000010800000020FE070108005806086A
:1039C00010B50B4C012220212046FEF79BFC012262
:1039D00010212046FEF796FC012240210548FEF703
:1039E00091FC0122052051020007FEF78BFC10BD5F
:1039F000000400500008005010B50C4C002220219B
:103A00002046FEF77FFC002210212046FEF77AFCBC
:103A1000002240210648FEF775FC01210520002206
:103A200049020007FEF76EFC10BD000000040050C4
:103A30000008005070B5104D104C2968A160104965
:103A400026780A8841001046FCF752FB21462A4698
:103A500049681268511A002E05D081420BD3FFF736
:103A6000AFFF002004E0814205D3FFF7C5FF01202E
:103A700020702868606070BDD800002038000020E9
:103A8000DC0000208068C007C00F704780684007D6
:103A9000C00F7047094B10B5994201D10C3004E0BA
:103AA0008B02DB0F9B001818A0300368044C0A40FF
:103AB0000C40A3431343036010BD00000000C07C12
:103AC000FFFFC77C026807239B059A430A430260F5
:103AD000704710B543690424214007248C40A34358
:103AE0008A401343436110BD10B51C4841780278E9
:103AF000090211434ABA1A490B88D31A194A13808A
:103B0000C37884781B0223434C885BBA1B1B538009
:103B1000437904791B02234389885BBA591A91803F
:103B2000417A027A090211434ABA0F490B88D31A23
:103B30000E4A1380C37A847A1B0223434C885BBAF3
:103B40001B1B5380437B047B18022043898840BAA7
:103B5000401A908000F00CF810BD0000F400002026
:103B60004A00002076000020500000207C00002049
:103B7000F8B53C4C00256078002837D0A0783A4E44
:103B8000002815D0401CC2B2A27038496368485F53
:103B9000C01860600223CB5EA768DB19A3600093A6
:103BA0000423CB5EE1685F18E760FB2A09D01DE0C3
:103BB00035807580B5806560A5600120E560A070E6
:103BC000F8BDFA21FCF7AAFA3080FA210098FCF738
:103BD000A5FA7080FA213846FCF7A0FA0121C90243
:103BE000401AB080A5706570FDF7E8FA20780028CB
:103BF000E6D0E07800282AD0401CC1B2E1701C4811
:103C00000022825E2369D21822610223C35E6669A4
:103C10009F1904236761C35EA0691E18A661FB2972
:103C2000CED1FA211046FCF779FA124CFA21208005
:103C30003846FCF773FA6080FA213046FCF76EFADA
:103C4000A0800848C5700570FDF7D2FAF8BD094894
:103C5000058045808580256165610120A561E07052
:103C6000F8BD0000180000204A0000207600002067
:103C70007C00002050000020F8B50E24FFF76CFCFB
:103C800000281AD0D020FFF7C1FCFFF79FFC0028C6
:103C900010D03B20FFF7BAFCFFF798FCFFF75CFC65
:103CA000D120FFF7B3FCFFF791FCFF26164F01363A
:103CB000164D1CE0FFF772FC0020F8BDFFF726FC54
:103CC0000D21091B7854AE620320401EFDD100BFB8
:103CD0008020A8620320401EFDD100BFAE610320FA
:103CE000401EFDD100BFAE620320401EFDD1641E08
:103CF0002406240EE2D1FFF709FC7873FFF7EEFBF0
:103D0000FFF74CFC0120F8BDF40000200004005037
:103D100010B53B2000F05EFC174C20703C2000F0FA
:103D200059FC60703D2000F055FCA0703E2000F072
:103D300051FCE0703F2000F04DFC2071402000F06D
:103D400049FC6071432000F045FC2072442000F0E3
:103D500041FC6072452000F03DFCA072462000F05E
:103D600039FCE072472000F035FC2073482000F059
:103D700031FC607310BD0000F400002010B58AB063
:103D800018216846FCF7E5F900241F4806940794BB
:103D90001C49089401608460C460090504614160A5
:103DA0000421416104764476012282760146203165
:103DB000C2610C70446284620A7304634463846366
:103DC0000C77C464FDF736FF002801D0FDF770FBC7
:103DD00003208005019069460B48FDF7D9FC0028B7
:103DE00001D0FDF765FB09480690079406A90894E1
:103DF0000548FDF711FE002801D0FDF759FB0AB078
:103E000010BD000000240140E0010020200000144B
:103E100008B50848816B012211438163806B104013
:103E20000022009011460920FEF7D2FA0920FEF781
:103E3000C3FA08BD00100240F0B587B014216846EF
:103E4000FCF787F92C48416B012529434163416BFD
:103E500029400591426B04210A434263426B0A40A8
:103E60000592426B02210A434263406B0E020840F6
:103E700005900520002231460007FEF743FA002294
:103E800040211E48FEF73EFAFF27B137002239468F
:103E90001B48FEF737FA1B480190002405206946AD
:103EA000009502940007FEF793F91020009003207C
:103EB00001900520694602940007FEF789F9052064
:103EC000029469460007009601950394FEF780F975
:103ED0004020009002946946019503940748FEF73C
:103EE00077F9029469460648009701950394FEF716
:103EF0006FF907B0F0BD000000100240000800504C
:103F0000000400500000111010B59CB0002419945A
:103F10001A9417941894149415941C2168461694B6
:103F2000FCF717F9342107A8FCF713F93C483B4983
:103F3000016003218460416004613A494461C160C9
:103F400080218161FEF7A6FE002801D0FDF7B0FABE
:103F500001200003179017A93148FEF7DFFE002863
:103F600001D0FDF7A5FA2E48FFF7D4F8002801D0BC
:103F7000FDF79EFA1494159414A929481694FEF797
:103F80005FFE002801D0FDF793FA602005940194AC
:103F900000900294039404940022694606942048F9
:103FA000FFF725F8002801D0FDF782FA04226946C0
:103FB0001B48FFF71CF8002801D0FDF779FA08220A
:103FC00069461748FFF713F8002801D0FDF770FA8B
:103FD0000C2269461248FFF70AF8002801D0FDF7C5
:103FE00067FA0120079440030C90089409940B94FD
:103FF00000030A940D940E9410900F94119412944F
:1040000007A913940648FEF7C5FD002801D0FDF767
:104010004FFA0348FEF7B2FF1CB010BD002C014060
:10402000A0020020E703000010B588B0002400942F
:104030000194174802940394049405941349069438
:104040000160032184604160046112498461C160A0
:10405000FEF720FE002801D0FDF72AFA0120000318
:10406000009069460A48FEF759FE002801D0FDF786
:104070001FFA049404A906480694FEF7E1FD0028FF
:1040800001D0FDF715FA08B010BD00000004004093
:10409000E0020020E703000010B50D480B49016065
:1040A0004B21C901416000218160C16001618161D2
:1040B000C16101620C22416242618162FFF72EF907
:1040C000002801D0FDF7F4F910BD000000440040C5
:1040D0002003002010B57D24E400A04201DD20462D
:1040E00002E0002800DA0020A14201DD214602E0C2
:1040F000002900DA0021A24201DD224602E0002A66
:1041000000DA0022A34201DD234602E0002B00DAA0
:104110000023044C6063A163E26302484030036003
:1041200010BD0000002C01407047000010B5FFF7E3
:1041300063FC0E490E4B41200B4A00064B600A609F
:104140008860143988600CC10A4A34310023840124
:104150001CC120391CC11C310860074848608860B8
:10416000FDF75EF810BD0000CDCC9C404001002062
:104170000AD7A33C3333B33FCDCCCC3D70470000CE
:1041800030B589B024206A4610704D2050703E2012
:1041900090700620D0706C20154C164D1071294679
:1041A0006068FCF73AF8FCF739F96A46507100127A
:1041B00090712946A068FCF730F8FCF72FF96A46A1
:1041C000D071001210722068A9024840FCF726F94D
:1041D0006A465072001290726846FDF705FA6A4608
:1041E000D07220216846FCF739FD09B030BD0000CF
:1041F000200100200000204170B588B024206A46CC
:1042000010704D2050703E2090701720D0700B2001
:1042100010714248424900885071001290714A6BF7
:104220007D20C00013186A46D3714A6B1218130A16
:104230006A4613728A6B13186A4653728A6B121895
:10424000130A6A469372CA6B13186A46D372C96B13
:104250000918090A1173324940310A6813186A466D
:10426000537309682F4C0818000A2F4D9073294684
:104270002068FBF7D2FFFCF7EAF86A462B4ED073B2
:1042800031466068FBF7C9FFFCF7E1F86A46107435
:10429000A068FCF7DCF86A46254C50742946206873
:1042A000FBF7BBFFFCF7D3F86A46907431466068B1
:1042B000FBF7B3FFFCF7CBF86A46D074A068FCF7B5
:1042C000C6F86A461B4C107529462068FBF7A5FF07
:1042D000FCF7BDF86A46507531466068FBF79DFFF4
:1042E000FCF7B5F86A469075A068FCF7B0F86A4626
:1042F000D075114800681076010A5176010C91764C
:10430000000ED0766846FDF76FF96A4610772021D7
:104310006846FCF7A3FC08B070BD0000D000002088
:10432000002C0140400100200000204100007A44A0
:10433000680100207C0100203400002030B589B0E5
:1043400024206A4610704D2050703E20907012203C
:10435000D0706620107130490020085E304CC217C2
:10436000920F101880106A4650710012907102204E
:10437000085EC217920F101880106A46D0710012A2
:1043800010720420085EC117890F0818801050723F
:104390000012224990724888D07200121073088867
:1043A00050730012907388884042D07300121074CA
:1043B0000020205EFCF720F8FD25AD052946FBF71F
:1043C0002CFFFCF72BF86A46507400129074022000
:1043D000205EFCF711F82946FBF71FFFFCF71EF8DB
:1043E0006A46D074001210750420205EFCF704F8B1
:1043F0002946FBF712FFFCF711F86A4650750012C8
:1044000090756846FDF7F0F86A46D0752021684639
:10441000FCF724FC09B030BD760000207C000020B1
:1044200082000020F8B5384D384E28880027384CD7
:10443000B04209D26078401CC0B260700F2810D919
:104440002078012802D00CE067700AE02770FFF79F
:10445000B7FA6420FCF796FEFFF7CEFA6420FCF76B
:1044600091FE2888B04215D26888B04212D2A8883E
:10447000AF21C90088420DD919218901884209D28A
:10448000A078401CC0B2A070962811D920780028CE
:1044900002D00DE0A7700BE001202070FFF790FA2A
:1044A0006420FCF76FFEFFF7A7FA6420FCF76AFEB2
:1044B0002888B04225D26888B04222D2A888B0426B
:1044C0001FD2E078401CC0B2E070642818D9207870
:1044D000002815D0E770FCF76BFEFCF763FEFFF7D2
:1044E0006FFA3220FCF74EFEFFF786FA3220FCF717
:1044F00049FEFFF765FA3220FCF744FEFFF77CFA2D
:10450000F8BDE770F8BD00001001002014050000A0
:104510008E00002003887D21C9008B4200D80B4605
:104520007D2212010380934200D3134603808388C7
:104530008B4200D80B468380934200D3134683807E
:10454000C3888B4200D80B46C380934200D31346E6
:10455000C38043888B4200D80B464380934200D3EC
:104560001346438003898B4200D80B460381934254
:1045700000D31346038143898B4200D80B46438105
:10458000934200D31346438183898B4200D9194655
:104590008181914200D20A468281704770470000B3
:1045A00070B50B4C2078401CC0B22070012805D09B
:1045B000022806D00025032808D105E0FFF7BEFE3B
:1045C00070BDFFF7DDFD70BDFFF716FE257070BDF5
:1045D000C600002010B50446FEF7BEFF00281AD022
:1045E000D020FFF713F8FEF7F1FF002814D0204683
:1045F000FFF70CF8FEF7EAFFFEF7AEFFD120FFF75A
:1046000005F8FEF7E3FFFEF781FF0446FEF766FFBD
:10461000FEF7C4FF204610BDFEF7C0FF002010BD0E
:1046200030B597B034216846FBF793FD00240D9414
:104630000E940F94182111A81094FBF78AFD012005
:104640004002FDF7C9FE0225E801039000954020D5
:10465000059008200A9080030B90079500030494AE
:104660000C90089509946846FEF788F807200D908D
:104670000F9402210E9510940DA8FDF779FF6803A1
:104680001190159411A8FDF7CDFE17B030BD0000B4
:1046900001200249C00688607047000000ED00E07C
:1046A00010B50248FEF7A8FB10BD0000E002002094
:1046B00070B50268174B184E984201D0B04203D132
:1046C0007024A2434C682243144C154D984208D0E4
:1046D000B04206D0134EB04203D0A04201D0A8424F
:1046E00004D103263602B243CE6832438026B24359
:1046F0004E69324302608A68C2620A6882629842E6
:1047000003D0A04201D0A84201D10969016301216F
:10471000416170BD002C0140000400400044014094
:10472000004801400020004030B58468FF252D027C
:104730001B021343AC430B432343836030BD000093
:104740008268034B1A400A4307210A43826070477C
:104750008FFFCFFFF0B5026A520852000262056A6D
:1047600043688269164C184E224092080C689200E9
:104770001443022295438A682A43124DA84204D06A
:10478000B04202D0114FB84206D10827BA43CF68D1
:104790001743042297433A46A84204D0B04202D0BD
:1047A0000A4DA84206D103252D02AB434D691D4396
:1047B0008B692B4343608461496841630262F0BDA9
:1047C0008FFFFEFF002C01400044014000480140E3
:1047D00070B5026A10239A430262046A43688269D0
:1047E000164D2A4003252D02AA430D682D021543BC
:1047F000202294438A6812012243114CA04208D11E
:104800001446CA688026B443120122434024A243BE
:1048100005E00C4CA04202D00B4CA04208D103246E
:10482000A402A3434C69A4001C438B699B0023434F
:104830004360856149688163026270BDFF8FFFFE3E
:10484000002C0140004401400048014070B5026A5C
:10485000FF2301339A430262046A4368C269164D1A
:104860002A4092080D689200154301225202944397
:104870008A6812022243114CA04208D11446CA6829
:10488000C614B443120222430415A24305E00C4CA3
:10489000A04202D00B4CA04208D103242403A3431E
:1048A0004C6924011C438B691B0123434360C56190
:1048B0004968C163026270BD8FFFFEFF002C01409A
:1048C000004401400048014030B5026A01231B0347
:1048D0009A430262046A4568C269124B1A40032374
:1048E0001B029A430B681B02134301225203944399
:1048F0008A68120322430C4CA04205D00B4CA04204
:1049000002D00B4CA04206D12C460125AD03AC438E
:104910004D69AD0125434560C36149680164026288
:1049200030BD0000FF8FFFFE002C0140004401401D
:104930000048014070B5026A01263604B2430262A3
:10494000036A4268446D0E4D2C400D682543740087
:10495000A3430C8924041C430A4B984205D00A4BFC
:10496000984202D0094B984203D14B69B2431B02D3
:104970001A434260456549688165046270BD000064
:104980008FFFFEFF002C0140004401400048014021
:1049900070B5026A01231B059A430262036A4268EA
:1049A000456D104C25400C6824022C4301256D05F3
:1049B000AB430D892D051D430B4B984205D00B4B86
:1049C000984202D00A4B984206D101261346B604FB
:1049D0004A69B34392021A43426044654968C1651B
:1049E000056270BDFF8FFFFE002C014000440140B6
:1049F0000048014030B5036A046A64086400046238
:104A00008469F025AC43120122430A24A3430B43DB
:104A10008261036230BD30B5036A1024A343036290
:104A20008469036A0F252D031203AC432243A0249B
:104A3000A343090119438261016230BD7CB5FFF7D0
:104A40001BF9002805D116480168491C0160FFF7D1
:104A50005FF9FFF749F813491348FBF7B5FF13490E
:104A60001348FCF759FE13491048FCF735FE0D4D6D
:104A70000420285EFBF7C0FC06460220285EFBF7F8
:104A8000BBFC04460020285EFBF7B6FC0346094841
:104A90000196009407C8FEF7DFFDFCF791F87CBD96
:104AA00034000020820000207600002088000020D2
:104AB0007C0000200401002010B5FCF777FD10BD3C
:104AC00010B50448FCF7A0FD03490248FCF7D2F8F2
:104AD00010BD0000200100201001002010B5034887
:104AE000034902780348FCF7A1F910BD8E000020AD
:104AF000100100200401002010B5018DC90707D066
:104B000001684A6801235B049A43C36A1A434A60F6
:104B1000018D890707D501684A6801231B049A4360
:104B2000036B1A434A60018D490707D501684A683B
:104B300001239B049A43436B1A434A60018D090782
:104B400007D501684A680123DB039A43836B1A4344
:104B50004A60018DC90607D50268916801231B03CD
:104B60009943C36B19439160018D890607D501688C
:104B70008A6801235B039A43036C1A438A60018DA0
:104B8000490612D503685A6801210905446C8A4315
:104B900022435A60426C8A4207D10268516803235B
:104BA0005B059943836C19435160018D090607D554
:104BB00001684A680123DB04C06C9A4302434A60DF
:104BC00010BD0000FEB50546002680350446AE60E7
:104BD000FDF79EFB019020680068124F000709D581
:104BE00001210097002249052046019B00F0AAF907
:104BF00000280DD12068006840070BD501210097DF
:104C0000002289052046019B00F09CF9002801D074
:104C10000320FEBD202028606860603426770020D5
:104C2000FEBD0000FFFFFF0110B5806A00220146B3
:104C30004031CA83CA82FEF7ADFA10BD01680A6826
:104C4000FF2321339A430A6001688A68044B1A40A3
:104C50008A60202284210A500021C166704700002A
:104C6000FEFFFFEFF8B5044680682169E26908435A
:104C70006169002611430843616E22680143106890
:104C8000A94B1840084310602168486803221203AA
:104C90009043E26810434860A169206A2268084393
:104CA0009168A24B1940014391602068C16A626A11
:104CB000090909011143C1629D49206888420FD149
:104CC0009C4840698007800F10D0012804D002283A
:104CD0000CD0032809D101E0042007E0082005E0FA
:104CE0009549884201D1002000E010200122D20322
:104CF000E169D511914B924F91426FD1002806D0B6
:104D0000022835D004287AD0082869D17AE0FDF746
:104D1000DBFC76E0012815D0022815D0032815D039
:104D2000042815D0052815D0062815D0072815D039
:104D3000082815D0092815D00A2815D00B2814D01A
:104D4000012512E0022510E004250EE006250CE006
:104D500008250AE00A2508E00C2506E0102504E0F5
:104D6000202502E0402500E08025294610461BE072
:104D7000606A002815D001282AD002282AD00328EA
:104D80002AD004282DD005282DD006282DD007287C
:104D90002DD008282DD009282DD00A282DD00B2859
:104DA00000D0012529461846FBF7A2F961684000AA
:104DB0004A088018FBF79CF980B201461039B942C5
:104DC0000ED85F49491C01400007400F08437FE0AF
:104DD0000225E7E70425E5E70625E3E716E00EE010
:104DE0008AE00825DEE70A25DCE70C25DAE710254E
:104DF000D8E72025D6E74025D4E78025D2E7FDF780
:104E000077FC0246606A00289AD083E7002806D023
:104E1000022835D0042874D0082879D174E0FDF731
:104E200053FC70E0012815D0022815D0032815D0B6
:104E3000042815D0052815D0062815D0072815D028
:104E4000082815D0092815D00A2815D00B2814D009
:104E5000012512E0022510E004250EE006250CE0F5
:104E600008250AE00A2508E00C2506E0102504E0E4
:104E7000202502E0402500E08025294610461BE061
:104E8000606A002815D0012825D0022825D00328E3
:104E900025D0042825D0052825D0062825D0072888
:104EA00025D0082825D0092827D00A2827D00B2864
:104EB00000D0012529461846FBF71AF961684A080F
:104EC0008018FBF715F980B201461039B9421FD896
:104ED0002168C8601DE00225ECE70425EAE7062505
:104EE000E8E70825E6E70A25E4E70C25E2E71025D0
:104EF000E0E72025DEE704E00AE04025DAE7802548
:104F0000D8E7FDF7F5FB0246606A0028A0D089E7E4
:104F10000126204601214030418501850020E066C0
:104F200020673046F8BD0000F369FFCFFFF4FF11A2
:104F30000038014040100240004400400024F400CA
:104F4000EFFF0000FFB581B017460E4604460A9DEC
:104F500009E0681C07D0FDF7DBF90499401AA84264
:104F60000CD8002D0AD02068C169304688431AD079
:104F70000020B842EDD0002005B0F0BD20680168E7
:104F8000FF22A132914301602068816849084900ED
:104F90008160202120468030016041600020603423
:104FA00020770320E8E70120E3E7000010B502487E
:104FB000FEF7F2F810BD0000200300202021020CB3
:104FC00001D010211046020A01D01046083902090A
:104FD00001D01046091F820801D01046891E4208E0
:104FE00001D0881E7047081A704700004900CA02A5
:104FF0000243100000D004204A0D01D001221043CA
:10500000044A490D914201D102210843012800D1EF
:1050100005207047FF0700008307FF22DB0E9A4040
:105020008907090E9940002808DB830809489B007E
:105030001B18186890430843186070470007000F5A
:105040000838830804489B001B18D869904308431C
:10505000D861704700E400E000ED00E0F8B50446D8
:105060004F1EC8000838211815461E4608684968B2
:105070003A4606239A4310D02A463346FBF754F9A2
:105080003A46D200083AA3181A687F1E5B68FBF7FD
:10509000C3FA06223B469343EED1022F23D0042FBE
:1050A00011D0062F2FD12A463346FBF73DF9E36A8C
:1050B000A26AFBF7B1FA2A463346FBF735F9636A71
:1050C000226AFBF7A9FA2A463346FBF72DF9E36972
:1050D000A269FBF7A1FA2A463346FBF725F9636973
:1050E0002269FBF799FA2A463346FBF71DF9E36874
:1050F000A268FBF791FA2A463346FBF715F9636875
:105100002268FBF789FAF8BD10B50122FBF7AEFB68
:1051100010BD10B5FBF780FA10BD002210B5134684
:1051200010461146FBF72AFB10BD0000034A10B5DC
:1051300000201107FBF79AFB10BD000001FDFFFFE7
:1051400002E008C8121F08C1002AFAD17047704750
:10515000002001E001C1121F002AFBD170470000AE
:105160000149086070470000F0000020F0B50446D7
:105170004F008E488FB07F080D460D91874228DB87
:105180004042381820430CD08948874203DC8742CC
:1051900018D1002C16D020462946FFF7B5FF0FB0D6
:1051A000F0BD844A844B20462946FBF7BDF80746EC
:1051B0000E46824A824B20462946FBF7B5F83A460E
:1051C000334649E00120FFF7CBFFFFF7A6FF0FB002
:1051D000F0BD7C48874243DAF920800587420BDA2C
:1051E00020462946FFF702FF042801D1FFF79EFF62
:1051F000204629460FB0F0BD22462B4610462946D0
:10520000FBF792F8064602466F480F460B4606210A
:105210007844FFF723FF32463B46FBF785F80690BC
:105220006A48079132463B4604217844FFF716FF4F
:1052300032463B46FBF778F800225C4BFBF7ECF973
:1052400002460B4607990698FBF798FA22462B462A
:10525000FBF76AF822462B46FBF7DEF90FB0F0BDEC
:105260002046524C6900490800222346FBF77EFA8B
:105270000022D243FBF7FAFA0546024654480E468E
:105280000B4606217844FFF7E9FE2A463346FBF732
:105290004BF806904F4807912A463346042178443C
:1052A000FFF7DCFE2A463346FBF73EF80022234692
:1052B000FBF7B2F9059104902846314600F0AAFAAE
:1052C000089045480C46874219DB059B049A0799CC
:1052D0000698FBF753FA02460B4621460898FBF75F
:1052E00023F82346089AFBF797F90122FBF7BEFA49
:1052F000304A314BFBF734FA304A314B4AE0002751
:105300003A460B460898FBF787F93A4623460A9136
:105310000E9010461946FBF707F82A463346FBF76E
:1053200025FA0A9B0E9AFBF729FA05460E46059BBD
:10533000049A07990698FBF721FA0091049001223C
:1053400028463146FBF792FA1A4A1B4BFBF70EFA36
:105350000E460546012221460898FBF787FA009B76
:10536000049AFAF7E1FF2A463346FBF7F9F90546B6
:105370000E46012238462146FBF778FA0F4C174FAC
:1053800022463B46FBF7F2F92A463346FBF7EEF995
:1053900022463B46FBF7EAF90D9A002A00DD5DE75D
:1053A0000122D20751400FB0F0BD00000000F03FD5
:1053B0000000F07F075C143326A6913C182D44545E
:1053C000FB21F93F0000E03FAC060000C2060000F0
:1053D000380600004E0600003333EF3FFB21E93F63
:1053E000F0B589B004460D46480006917249400860
:1053F000884215DB7149884203DC884207D1002CC2
:1054000005D020462946FFF77FFE09B0F0BD6C4865
:10541000002D02DD6B4909B0F0BD6B4909B0F0BD4C
:105420006A49884211DA6A4988420BDA20462946DD
:10543000FFF7DCFD042801D1FFF778FE204629465E
:1054400009B0F0BD0026F6435DE06D0061496D08CE
:10545000884232DA6049884219DA0026012332464E
:105460009B0720462946FBF7D7F807460191012202
:1054700020462946FBF7FAF90022584BFBF770F952
:105480003A46019BFBF77AF904460D463BE00126BC
:105490000022524B20462946FBF7BEF807460091F2
:1054A00000224E4B20462946FBF75AF93A46009B0C
:1054B000FBF764F904460D4625E04949884219DAAC
:1054C00002260022474B20462946FAF72DFF0022EC
:1054D000424BFBF7A1F8074602910022414B2046C0
:1054E0002946FBF73DF93A46029BFBF747F904468C
:1054F0000D4608E0032622462B4600203A49FBF7DA
:105500003DF904460D4622462B4610461946FAF749
:105510000BFF07460B4602460191FAF705FF0246CC
:10552000029032480B46039106217844FFF796FD1E
:105530003A46019BFAF7F8FE00902D4801910521AB
:105540007844039B029AFFF789FD039B029AFAF7BE
:10555000EBFE02460B4601990098002E0BDAFBF792
:105560005BF822462B46FAF7DFFE22462B46FBF776
:10557000FDF809B0F0BDFBF74FF822462B46FAF7CD
:10558000D3FE1C4AF6007A4493191A685B68FBF74D
:10559000E7F822462B46FBF7E3F8174A7A449319BB
:1055A0001A685B68FBF7E2F8069A002AE1DA012242
:1055B000D207514009B0F0BD000010440000F07F58
:1055C000182D4454FB21F93FFB21F9BF0000DC3FBB
:1055D0000000203E0000F33F0000E63F0000F03FE7
:1055E000008003400000F83F0000F0BF4A040000C4
:1055F0000C040000A603000070030000F0B51FB407
:10560000039B54425D00164626439C46F40F6D08EA
:105610004B004E4E5B082C438E46B44205D84742A1
:105620000743FC0F1C43B44204D96346FFF771FDE6
:1056300005B0F0BD464E6644164309D0CC0F664611
:10564000B61702273E40264304461C4304D00BE015
:10565000FFF7C6FE05B0F0BD002EFBD0012EF9D03D
:10566000022E32D0032E34D014462C430BD0374CAC
:10567000A54216D1A3420AD1012189078D438B434C
:10568000194603950DE0704600280FDB25E0314FE9
:105690007F44002E0ED0012E10D0022E15D0032EE6
:1056A00017D0A3421DD17046002816DA2A482B498C
:1056B00005B0F0BD7968386805B0F0BD01227968A1
:1056C000D2073868514005B0F0BD2348244905B0E1
:1056D000F0BD2148234905B0F0BD1F48224905B05F
:1056E000F0BD5B1B1B153C2B02DD1B481E490FE068
:1056F0006446002C05DA3C24E34202DA002001462D
:1057000006E0039BFBF73AF849004908FFF768FEFB
:10571000002EE4D0012E0BD0144A154B022E0CD0D3
:10572000FBF71EF80C4A0E4BFBF71AF805B0F0BD5C
:105730000122D207514005B0F0BDFBF711F8064A2F
:10574000074BFBF713F805B0F0BD00000000F07F39
:10575000000010C014030000182D4454FB21F9BFB1
:10576000FB210940FB2109C0FB21F93F075C1433F1
:1057700026A6A13C10B500210446C943FAF7C8FD8E
:10578000084A6110541A2146FAF747FD2146FAF7F4
:1057900044FDFF218905FAF73CFD2146FAF73DFD5E
:1057A00010BD0000DF59375FFCF7B8FDFEF738FF8A
:1057B000FEF742FBFEF72CFBFEF7A6FBFEF76CFCA8
:1057C000FEF7DCFAFEF730FC0E4E0F4F0F4C0025B3
:1057D0003078002802D03570FFF730F93878022889
:1057E00002D33D70FFF77AF92078042802D32570A0
:1057F000FFF766F9064800786428E9D32570FFF7BB
:105800005BF9E5E7D4000020D5000020D600002099
:10581000D7000020F8B506460C46FBF783F8051EB6
:105820000F4600D00120014349000B484908411AA6
:10583000C90F0DD0002E01D0012100E000210C4342
:1058400061004908401AC00F02D10120FFF788FC0F
:1058500028463946F8BD00000000F07F0000000037
:105860000000000000000000000000000000000038
:105870000000000000000000000000000100000027
:105880000200000003000000040000000600000009
:1058900007000000080000000900000000000000F0
:1058A00000000000000000000000000001000000F7
:1058B00002000000030000000400000000000000DF
:1058C000555555555555C53F7D6FEB0312D6D4BF81
:1058D0005544880E55C1C93F3B8F68B52882A4BF87
:1058E00088B20175E0EF493F09F7FD0DE13D023F48
:1058F0004B2D8A1C273A03C0C88A599CE52A0040D0
:1059000059018D1B6C06E6BF82922EB1C5B8B33F1C
:105910004FBB610567ACDD3F182D4454FB21E93FC7
:105920009BF681D20B73EF3F182D4454FB21F93FB6
:10593000E2652F227F2B7A3C075C143326A6813C3C
:10594000BDCBF07A8807703C075C143326A6913CE7
:10595000C4EB98999999C9BF711623FEC671BCBF53
:105960006D9A74AFF2B0B3BF9AFDDE522DDEADBFBB
:105970002F6C6A2C44B4A2BF0D5555555555D53FD3
:10598000FF8300922449C23F6E204CC5CD45B73FEE
:10599000513DD0A0660DB13FEB0D76244B7BA93F66
:1059A00011DA22E33AAD903F000000000000000051
:1059B000D059000800000020F40000004051000809
:1059C000C45A0008F4000020D4060000505100081A
:1059D00000000000000000000000000002000000C5
:1059E00000000108010000000000000000000000AD
:1059F00000000000000000000000000000000000A7
:105A00000000000000000000000000000000000096
:105A10000000000000000000000000000000000086
:105A2000000000000000009A019A029A039A049A6A
:105A3000059A069A079A089A099A109A129A139A3E
:105A4000149A159A000000000000000000000000F9
:105A50000000000000000000000000000000010045
:105A60000000000000000000000000000000000036
:105A700000000000000000000000803F0000000067
:105A80000000000000000000000000000000000016
:105A90000000000000000000000000000000000006
:105AA00000000000000000000000000000000000F6
:105AB0000024F400040000000100000000000000C9
:045AC00000000000E2
:04000005080000C12E
:00000001FF
